{
	"Contracts/GoFundMe/FundMe.sol": {
		"FundMe": {
			"abi": [
				{
					"inputs": [],
					"stateMutability": "nonpayable",
					"type": "constructor"
				},
				{
					"inputs": [
						{
							"internalType": "address",
							"name": "funder",
							"type": "address"
						}
					],
					"name": "addressToAmountFunded",
					"outputs": [
						{
							"internalType": "uint256",
							"name": "amountFunded",
							"type": "uint256"
						}
					],
					"stateMutability": "view",
					"type": "function"
				},
				{
					"inputs": [],
					"name": "fund",
					"outputs": [],
					"stateMutability": "payable",
					"type": "function"
				},
				{
					"inputs": [
						{
							"internalType": "uint256",
							"name": "",
							"type": "uint256"
						}
					],
					"name": "funders",
					"outputs": [
						{
							"internalType": "address",
							"name": "",
							"type": "address"
						}
					],
					"stateMutability": "view",
					"type": "function"
				},
				{
					"inputs": [],
					"name": "owner",
					"outputs": [
						{
							"internalType": "address",
							"name": "",
							"type": "address"
						}
					],
					"stateMutability": "view",
					"type": "function"
				},
				{
					"inputs": [],
					"name": "withdraw",
					"outputs": [],
					"stateMutability": "nonpayable",
					"type": "function"
				}
			],
			"devdoc": {
				"kind": "dev",
				"methods": {},
				"version": 1
			},
			"evm": {
				"assembly": "    /* \"Contracts/GoFundMe/FundMe.sol\":331:2985  contract FundMe {... */\n  mstore(0x40, 0x80)\n    /* \"Contracts/GoFundMe/FundMe.sol\":457:461  5e18 */\n  0x4563918244f40000\n    /* \"Contracts/GoFundMe/FundMe.sol\":436:461  uint256 minimumUsd = 5e18 */\n  0x00\n  sstore\n    /* \"Contracts/GoFundMe/FundMe.sol\":615:665  constructor(){... */\n  callvalue\n  dup1\n  iszero\n  tag_1\n  jumpi\n  0x00\n  dup1\n  revert\ntag_1:\n  pop\n    /* \"Contracts/GoFundMe/FundMe.sol\":647:657  msg.sender */\n  caller\n    /* \"Contracts/GoFundMe/FundMe.sol\":639:644  owner */\n  0x03\n  0x00\n    /* \"Contracts/GoFundMe/FundMe.sol\":639:657  owner = msg.sender */\n  0x0100\n  exp\n  dup2\n  sload\n  dup2\n  0xffffffffffffffffffffffffffffffffffffffff\n  mul\n  not\n  and\n  swap1\n  dup4\n  0xffffffffffffffffffffffffffffffffffffffff\n  and\n  mul\n  or\n  swap1\n  sstore\n  pop\n    /* \"Contracts/GoFundMe/FundMe.sol\":331:2985  contract FundMe {... */\n  dataSize(sub_0)\n  dup1\n  dataOffset(sub_0)\n  0x00\n  codecopy\n  0x00\n  return\nstop\n\nsub_0: assembly {\n        /* \"Contracts/GoFundMe/FundMe.sol\":331:2985  contract FundMe {... */\n      mstore(0x40, 0x80)\n      jumpi(tag_1, lt(calldatasize, 0x04))\n      shr(0xe0, calldataload(0x00))\n      dup1\n      0x3ccfd60b\n      eq\n      tag_2\n      jumpi\n      dup1\n      0x3e47d6f3\n      eq\n      tag_3\n      jumpi\n      dup1\n      0x8da5cb5b\n      eq\n      tag_4\n      jumpi\n      dup1\n      0xb60d4288\n      eq\n      tag_5\n      jumpi\n      dup1\n      0xdc0d3dff\n      eq\n      tag_6\n      jumpi\n    tag_1:\n      0x00\n      dup1\n      revert\n        /* \"Contracts/GoFundMe/FundMe.sol\":1510:2546  function withdraw () public onlyOwner {... */\n    tag_2:\n      callvalue\n      dup1\n      iszero\n      tag_7\n      jumpi\n      0x00\n      dup1\n      revert\n    tag_7:\n      pop\n      tag_8\n      tag_9\n      jump\t// in\n    tag_8:\n      stop\n        /* \"Contracts/GoFundMe/FundMe.sol\":501:577  mapping(address funder => uint256 amountFunded) public addressToAmountFunded */\n    tag_3:\n      callvalue\n      dup1\n      iszero\n      tag_10\n      jumpi\n      0x00\n      dup1\n      revert\n    tag_10:\n      pop\n      tag_11\n      0x04\n      dup1\n      calldatasize\n      sub\n      dup2\n      add\n      swap1\n      tag_12\n      swap2\n      swap1\n      tag_13\n      jump\t// in\n    tag_12:\n      tag_14\n      jump\t// in\n    tag_11:\n      mload(0x40)\n      tag_15\n      swap2\n      swap1\n      tag_16\n      jump\t// in\n    tag_15:\n      mload(0x40)\n      dup1\n      swap2\n      sub\n      swap1\n      return\n        /* \"Contracts/GoFundMe/FundMe.sol\":586:606  address public owner */\n    tag_4:\n      callvalue\n      dup1\n      iszero\n      tag_17\n      jumpi\n      0x00\n      dup1\n      revert\n    tag_17:\n      pop\n      tag_18\n      tag_19\n      jump\t// in\n    tag_18:\n      mload(0x40)\n      tag_20\n      swap2\n      swap1\n      tag_21\n      jump\t// in\n    tag_20:\n      mload(0x40)\n      dup1\n      swap2\n      sub\n      swap1\n      return\n        /* \"Contracts/GoFundMe/FundMe.sol\":757:1502  function fund() public payable {... */\n    tag_5:\n      tag_22\n      tag_23\n      jump\t// in\n    tag_22:\n      stop\n        /* \"Contracts/GoFundMe/FundMe.sol\":470:494  address[] public funders */\n    tag_6:\n      callvalue\n      dup1\n      iszero\n      tag_24\n      jumpi\n      0x00\n      dup1\n      revert\n    tag_24:\n      pop\n      tag_25\n      0x04\n      dup1\n      calldatasize\n      sub\n      dup2\n      add\n      swap1\n      tag_26\n      swap2\n      swap1\n      tag_27\n      jump\t// in\n    tag_26:\n      tag_28\n      jump\t// in\n    tag_25:\n      mload(0x40)\n      tag_29\n      swap2\n      swap1\n      tag_21\n      jump\t// in\n    tag_29:\n      mload(0x40)\n      dup1\n      swap2\n      sub\n      swap1\n      return\n        /* \"Contracts/GoFundMe/FundMe.sol\":1510:2546  function withdraw () public onlyOwner {... */\n    tag_9:\n        /* \"Contracts/GoFundMe/FundMe.sol\":2608:2613  owner */\n      0x03\n      0x00\n      swap1\n      sload\n      swap1\n      0x0100\n      exp\n      swap1\n      div\n      0xffffffffffffffffffffffffffffffffffffffff\n      and\n        /* \"Contracts/GoFundMe/FundMe.sol\":2594:2613  msg.sender == owner */\n      0xffffffffffffffffffffffffffffffffffffffff\n      and\n        /* \"Contracts/GoFundMe/FundMe.sol\":2594:2604  msg.sender */\n      caller\n        /* \"Contracts/GoFundMe/FundMe.sol\":2594:2613  msg.sender == owner */\n      0xffffffffffffffffffffffffffffffffffffffff\n      and\n      eq\n        /* \"Contracts/GoFundMe/FundMe.sol\":2586:2642  require(msg.sender == owner, \"Sender is not the owner!\") */\n      tag_31\n      jumpi\n      mload(0x40)\n      0x08c379a000000000000000000000000000000000000000000000000000000000\n      dup2\n      mstore\n      0x04\n      add\n      tag_32\n      swap1\n      tag_33\n      jump\t// in\n    tag_32:\n      mload(0x40)\n      dup1\n      swap2\n      sub\n      swap1\n      revert\n    tag_31:\n        /* \"Contracts/GoFundMe/FundMe.sol\":1563:1582  uint256 funderIndex */\n      0x00\n        /* \"Contracts/GoFundMe/FundMe.sol\":1559:1744  for(uint256 funderIndex = 0; funderIndex < funders.length; funderIndex++){... */\n    tag_35:\n        /* \"Contracts/GoFundMe/FundMe.sol\":1602:1609  funders */\n      0x01\n        /* \"Contracts/GoFundMe/FundMe.sol\":1602:1616  funders.length */\n      dup1\n      sload\n      swap1\n      pop\n        /* \"Contracts/GoFundMe/FundMe.sol\":1588:1599  funderIndex */\n      dup2\n        /* \"Contracts/GoFundMe/FundMe.sol\":1588:1616  funderIndex < funders.length */\n      lt\n        /* \"Contracts/GoFundMe/FundMe.sol\":1559:1744  for(uint256 funderIndex = 0; funderIndex < funders.length; funderIndex++){... */\n      iszero\n      tag_36\n      jumpi\n        /* \"Contracts/GoFundMe/FundMe.sol\":1647:1661  address funder */\n      0x00\n        /* \"Contracts/GoFundMe/FundMe.sol\":1664:1671  funders */\n      0x01\n        /* \"Contracts/GoFundMe/FundMe.sol\":1672:1683  funderIndex */\n      dup3\n        /* \"Contracts/GoFundMe/FundMe.sol\":1664:1684  funders[funderIndex] */\n      dup2\n      sload\n      dup2\n      lt\n      tag_38\n      jumpi\n      tag_39\n      tag_40\n      jump\t// in\n    tag_39:\n    tag_38:\n      swap1\n      0x00\n      mstore\n      keccak256(0x00, 0x20)\n      add\n      0x00\n      swap1\n      sload\n      swap1\n      0x0100\n      exp\n      swap1\n      div\n      0xffffffffffffffffffffffffffffffffffffffff\n      and\n        /* \"Contracts/GoFundMe/FundMe.sol\":1647:1684  address funder = funders[funderIndex] */\n      swap1\n      pop\n        /* \"Contracts/GoFundMe/FundMe.sol\":1731:1732  0 */\n      0x00\n        /* \"Contracts/GoFundMe/FundMe.sol\":1699:1720  addressToAmountFunded */\n      0x02\n        /* \"Contracts/GoFundMe/FundMe.sol\":1699:1728  addressToAmountFunded[funder] */\n      0x00\n        /* \"Contracts/GoFundMe/FundMe.sol\":1721:1727  funder */\n      dup4\n        /* \"Contracts/GoFundMe/FundMe.sol\":1699:1728  addressToAmountFunded[funder] */\n      0xffffffffffffffffffffffffffffffffffffffff\n      and\n      0xffffffffffffffffffffffffffffffffffffffff\n      and\n      dup2\n      mstore\n      0x20\n      add\n      swap1\n      dup2\n      mstore\n      0x20\n      add\n      0x00\n      keccak256\n        /* \"Contracts/GoFundMe/FundMe.sol\":1699:1732  addressToAmountFunded[funder] = 0 */\n      dup2\n      swap1\n      sstore\n      pop\n        /* \"Contracts/GoFundMe/FundMe.sol\":1632:1744  {... */\n      pop\n        /* \"Contracts/GoFundMe/FundMe.sol\":1618:1631  funderIndex++ */\n      dup1\n      dup1\n      0x01\n      add\n      swap2\n      pop\n      pop\n        /* \"Contracts/GoFundMe/FundMe.sol\":1559:1744  for(uint256 funderIndex = 0; funderIndex < funders.length; funderIndex++){... */\n      jump(tag_35)\n    tag_36:\n      pop\n        /* \"Contracts/GoFundMe/FundMe.sol\":1780:1781  0 */\n      0x00\n        /* \"Contracts/GoFundMe/FundMe.sol\":1766:1782  new address[](0) */\n      0xffffffffffffffff\n      dup2\n      gt\n      iszero\n      tag_42\n      jumpi\n      tag_43\n      tag_44\n      jump\t// in\n    tag_43:\n    tag_42:\n      mload(0x40)\n      swap1\n      dup1\n      dup3\n      mstore\n      dup1\n      0x20\n      mul\n      0x20\n      add\n      dup3\n      add\n      0x40\n      mstore\n      dup1\n      iszero\n      tag_45\n      jumpi\n      dup2\n      0x20\n      add\n      0x20\n      dup3\n      mul\n      dup1\n      calldatasize\n      dup4\n      calldatacopy\n      dup1\n      dup3\n      add\n      swap2\n      pop\n      pop\n      swap1\n      pop\n    tag_45:\n      pop\n        /* \"Contracts/GoFundMe/FundMe.sol\":1756:1763  funders */\n      0x01\n        /* \"Contracts/GoFundMe/FundMe.sol\":1756:1782  funders = new address[](0) */\n      swap1\n      dup1\n      mload\n      swap1\n      0x20\n      add\n      swap1\n      tag_46\n      swap3\n      swap2\n      swap1\n      tag_47\n      jump\t// in\n    tag_46:\n      pop\n        /* \"Contracts/GoFundMe/FundMe.sol\":2382:2398  bool callSuccess */\n      0x00\n        /* \"Contracts/GoFundMe/FundMe.sol\":2441:2451  msg.sender */\n      caller\n        /* \"Contracts/GoFundMe/FundMe.sol\":2433:2457  payable(msg.sender).call */\n      0xffffffffffffffffffffffffffffffffffffffff\n      and\n        /* \"Contracts/GoFundMe/FundMe.sol\":2465:2486  address(this).balance */\n      selfbalance\n        /* \"Contracts/GoFundMe/FundMe.sol\":2433:2491  payable(msg.sender).call{value: address(this).balance}(\"\") */\n      mload(0x40)\n      tag_48\n      swap1\n      tag_49\n      jump\t// in\n    tag_48:\n      0x00\n      mload(0x40)\n      dup1\n      dup4\n      sub\n      dup2\n      dup6\n      dup8\n      gas\n      call\n      swap3\n      pop\n      pop\n      pop\n      returndatasize\n      dup1\n      0x00\n      dup2\n      eq\n      tag_52\n      jumpi\n      mload(0x40)\n      swap2\n      pop\n      and(add(returndatasize, 0x3f), not(0x1f))\n      dup3\n      add\n      0x40\n      mstore\n      returndatasize\n      dup3\n      mstore\n      returndatasize\n      0x00\n      0x20\n      dup5\n      add\n      returndatacopy\n      jump(tag_51)\n    tag_52:\n      0x60\n      swap2\n      pop\n    tag_51:\n      pop\n        /* \"Contracts/GoFundMe/FundMe.sol\":2381:2491  (bool callSuccess, /*bytes memory dataReturned*/) = payable(msg.sender).call{value: address(this).balance}(\"\") */\n      pop\n      swap1\n      pop\n        /* \"Contracts/GoFundMe/FundMe.sol\":2510:2521  callSuccess */\n      dup1\n        /* \"Contracts/GoFundMe/FundMe.sol\":2502:2538  require(callSuccess, \"Call Failed!\") */\n      tag_53\n      jumpi\n      mload(0x40)\n      0x08c379a000000000000000000000000000000000000000000000000000000000\n      dup2\n      mstore\n      0x04\n      add\n      tag_54\n      swap1\n      tag_55\n      jump\t// in\n    tag_54:\n      mload(0x40)\n      dup1\n      swap2\n      sub\n      swap1\n      revert\n    tag_53:\n        /* \"Contracts/GoFundMe/FundMe.sol\":1548:2546  {... */\n      pop\n        /* \"Contracts/GoFundMe/FundMe.sol\":1510:2546  function withdraw () public onlyOwner {... */\n      jump\t// out\n        /* \"Contracts/GoFundMe/FundMe.sol\":501:577  mapping(address funder => uint256 amountFunded) public addressToAmountFunded */\n    tag_14:\n      mstore(0x20, 0x02)\n      dup1\n      0x00\n      mstore\n      keccak256(0x00, 0x40)\n      0x00\n      swap2\n      pop\n      swap1\n      pop\n      sload\n      dup2\n      jump\t// out\n        /* \"Contracts/GoFundMe/FundMe.sol\":586:606  address public owner */\n    tag_19:\n      0x03\n      0x00\n      swap1\n      sload\n      swap1\n      0x0100\n      exp\n      swap1\n      div\n      0xffffffffffffffffffffffffffffffffffffffff\n      and\n      dup2\n      jump\t// out\n        /* \"Contracts/GoFundMe/FundMe.sol\":757:1502  function fund() public payable {... */\n    tag_23:\n        /* \"Contracts/GoFundMe/FundMe.sol\":1031:1035  1e18 */\n      0x0de0b6b3a7640000\n        /* \"Contracts/GoFundMe/FundMe.sol\":998:1027  msg.value.getConversionRate() */\n      tag_57\n        /* \"Contracts/GoFundMe/FundMe.sol\":998:1007  msg.value */\n      callvalue\n        /* \"Contracts/GoFundMe/FundMe.sol\":998:1025  msg.value.getConversionRate */\n      tag_58\n        /* \"Contracts/GoFundMe/FundMe.sol\":998:1027  msg.value.getConversionRate() */\n      jump\t// in\n    tag_57:\n        /* \"Contracts/GoFundMe/FundMe.sol\":998:1035  msg.value.getConversionRate() >= 1e18 */\n      lt\n      iszero\n        /* \"Contracts/GoFundMe/FundMe.sol\":990:1063  require(msg.value.getConversionRate() >= 1e18, \"didn't send enough ETH\" ) */\n      tag_59\n      jumpi\n      mload(0x40)\n      0x08c379a000000000000000000000000000000000000000000000000000000000\n      dup2\n      mstore\n      0x04\n      add\n      tag_60\n      swap1\n      tag_61\n      jump\t// in\n    tag_60:\n      mload(0x40)\n      dup1\n      swap2\n      sub\n      swap1\n      revert\n    tag_59:\n        /* \"Contracts/GoFundMe/FundMe.sol\":1413:1420  funders */\n      0x01\n        /* \"Contracts/GoFundMe/FundMe.sol\":1426:1436  msg.sender */\n      caller\n        /* \"Contracts/GoFundMe/FundMe.sol\":1413:1437  funders.push(msg.sender) */\n      swap1\n      dup1\n      0x01\n      dup2\n      sload\n      add\n      dup1\n      dup3\n      sstore\n      dup1\n      swap2\n      pop\n      pop\n      0x01\n      swap1\n      sub\n      swap1\n      0x00\n      mstore\n      keccak256(0x00, 0x20)\n      add\n      0x00\n      swap1\n      swap2\n      swap1\n      swap2\n      swap1\n      swap2\n      0x0100\n      exp\n      dup2\n      sload\n      dup2\n      0xffffffffffffffffffffffffffffffffffffffff\n      mul\n      not\n      and\n      swap1\n      dup4\n      0xffffffffffffffffffffffffffffffffffffffff\n      and\n      mul\n      or\n      swap1\n      sstore\n      pop\n        /* \"Contracts/GoFundMe/FundMe.sol\":1485:1494  msg.value */\n      callvalue\n        /* \"Contracts/GoFundMe/FundMe.sol\":1448:1469  addressToAmountFunded */\n      0x02\n        /* \"Contracts/GoFundMe/FundMe.sol\":1448:1481  addressToAmountFunded[msg.sender] */\n      0x00\n        /* \"Contracts/GoFundMe/FundMe.sol\":1470:1480  msg.sender */\n      caller\n        /* \"Contracts/GoFundMe/FundMe.sol\":1448:1481  addressToAmountFunded[msg.sender] */\n      0xffffffffffffffffffffffffffffffffffffffff\n      and\n      0xffffffffffffffffffffffffffffffffffffffff\n      and\n      dup2\n      mstore\n      0x20\n      add\n      swap1\n      dup2\n      mstore\n      0x20\n      add\n      0x00\n      keccak256\n      0x00\n        /* \"Contracts/GoFundMe/FundMe.sol\":1448:1494  addressToAmountFunded[msg.sender] += msg.value */\n      dup3\n      dup3\n      sload\n      tag_63\n      swap2\n      swap1\n      tag_64\n      jump\t// in\n    tag_63:\n      swap3\n      pop\n      pop\n      dup2\n      swap1\n      sstore\n      pop\n        /* \"Contracts/GoFundMe/FundMe.sol\":757:1502  function fund() public payable {... */\n      jump\t// out\n        /* \"Contracts/GoFundMe/FundMe.sol\":470:494  address[] public funders */\n    tag_28:\n      0x01\n      dup2\n      dup2\n      sload\n      dup2\n      lt\n      tag_65\n      jumpi\n      0x00\n      dup1\n      revert\n    tag_65:\n      swap1\n      0x00\n      mstore\n      keccak256(0x00, 0x20)\n      add\n      0x00\n      swap2\n      pop\n      sload\n      swap1\n      0x0100\n      exp\n      swap1\n      div\n      0xffffffffffffffffffffffffffffffffffffffff\n      and\n      dup2\n      jump\t// out\n        /* \"Contracts/GoFundMe/PriceConverter.sol\":905:1166  function getConversionRate(uint256 ethAmount) internal view returns (uint256){... */\n    tag_58:\n        /* \"Contracts/GoFundMe/PriceConverter.sol\":974:981  uint256 */\n      0x00\n        /* \"Contracts/GoFundMe/PriceConverter.sol\":992:1008  uint256 ethPrice */\n      dup1\n        /* \"Contracts/GoFundMe/PriceConverter.sol\":1011:1021  getPrice() */\n      tag_68\n        /* \"Contracts/GoFundMe/PriceConverter.sol\":1011:1019  getPrice */\n      tag_69\n        /* \"Contracts/GoFundMe/PriceConverter.sol\":1011:1021  getPrice() */\n      jump\t// in\n    tag_68:\n        /* \"Contracts/GoFundMe/PriceConverter.sol\":992:1021  uint256 ethPrice = getPrice() */\n      swap1\n      pop\n        /* \"Contracts/GoFundMe/PriceConverter.sol\":1031:1053  uint256 ethAmountInUsd */\n      0x00\n        /* \"Contracts/GoFundMe/PriceConverter.sol\":1081:1085  1e18 */\n      0x0de0b6b3a7640000\n        /* \"Contracts/GoFundMe/PriceConverter.sol\":1068:1077  ethAmount */\n      dup5\n        /* \"Contracts/GoFundMe/PriceConverter.sol\":1057:1065  ethPrice */\n      dup4\n        /* \"Contracts/GoFundMe/PriceConverter.sol\":1057:1077  ethPrice * ethAmount */\n      tag_70\n      swap2\n      swap1\n      tag_71\n      jump\t// in\n    tag_70:\n        /* \"Contracts/GoFundMe/PriceConverter.sol\":1056:1085  (ethPrice * ethAmount) / 1e18 */\n      tag_72\n      swap2\n      swap1\n      tag_73\n      jump\t// in\n    tag_72:\n        /* \"Contracts/GoFundMe/PriceConverter.sol\":1031:1085  uint256 ethAmountInUsd = (ethPrice * ethAmount) / 1e18 */\n      swap1\n      pop\n        /* \"Contracts/GoFundMe/PriceConverter.sol\":1145:1159  ethAmountInUsd */\n      dup1\n        /* \"Contracts/GoFundMe/PriceConverter.sol\":1138:1159  return ethAmountInUsd */\n      swap3\n      pop\n      pop\n      pop\n        /* \"Contracts/GoFundMe/PriceConverter.sol\":905:1166  function getConversionRate(uint256 ethAmount) internal view returns (uint256){... */\n      swap2\n      swap1\n      pop\n      jump\t// out\n        /* \"Contracts/GoFundMe/PriceConverter.sol\":271:899  function getPrice() internal view returns (uint256) {... */\n    tag_69:\n        /* \"Contracts/GoFundMe/PriceConverter.sol\":314:321  uint256 */\n      0x00\n        /* \"Contracts/GoFundMe/PriceConverter.sol\":491:522  AggregatorV3Interface priceFeed */\n      dup1\n        /* \"Contracts/GoFundMe/PriceConverter.sol\":547:589  0x694AA1769357215DE4FAC081bf1f309aDC325306 */\n      0x694aa1769357215de4fac081bf1f309adc325306\n        /* \"Contracts/GoFundMe/PriceConverter.sol\":491:590  AggregatorV3Interface priceFeed = AggregatorV3Interface(0x694AA1769357215DE4FAC081bf1f309aDC325306) */\n      swap1\n      pop\n        /* \"Contracts/GoFundMe/PriceConverter.sol\":603:615  int256 price */\n      0x00\n        /* \"Contracts/GoFundMe/PriceConverter.sol\":625:634  priceFeed */\n      dup2\n        /* \"Contracts/GoFundMe/PriceConverter.sol\":625:650  priceFeed.latestRoundData */\n      0xffffffffffffffffffffffffffffffffffffffff\n      and\n      0xfeaf968c\n        /* \"Contracts/GoFundMe/PriceConverter.sol\":625:652  priceFeed.latestRoundData() */\n      mload(0x40)\n      dup2\n      0xffffffff\n      and\n      0xe0\n      shl\n      dup2\n      mstore\n      0x04\n      add\n      0xa0\n      mload(0x40)\n      dup1\n      dup4\n      sub\n      dup2\n      dup7\n      gas\n      staticcall\n      iszero\n      dup1\n      iszero\n      tag_76\n      jumpi\n      returndatasize\n      0x00\n      dup1\n      returndatacopy\n      revert(0x00, returndatasize)\n    tag_76:\n      pop\n      pop\n      pop\n      pop\n      mload(0x40)\n      returndatasize\n      not(0x1f)\n      0x1f\n      dup3\n      add\n      and\n      dup3\n      add\n      dup1\n      0x40\n      mstore\n      pop\n      dup2\n      add\n      swap1\n      tag_77\n      swap2\n      swap1\n      tag_78\n      jump\t// in\n    tag_77:\n        /* \"Contracts/GoFundMe/PriceConverter.sol\":600:652  (, int256 price, , , ) = priceFeed.latestRoundData() */\n      pop\n      pop\n      pop\n      swap2\n      pop\n      pop\n        /* \"Contracts/GoFundMe/PriceConverter.sol\":725:729  1e10 */\n      0x02540be400\n        /* \"Contracts/GoFundMe/PriceConverter.sol\":716:721  price */\n      dup2\n        /* \"Contracts/GoFundMe/PriceConverter.sol\":708:729  uint256(price) * 1e10 */\n      tag_79\n      swap2\n      swap1\n      tag_71\n      jump\t// in\n    tag_79:\n        /* \"Contracts/GoFundMe/PriceConverter.sol\":701:729  return uint256(price) * 1e10 */\n      swap3\n      pop\n      pop\n      pop\n        /* \"Contracts/GoFundMe/PriceConverter.sol\":271:899  function getPrice() internal view returns (uint256) {... */\n      swap1\n      jump\t// out\n    tag_47:\n      dup3\n      dup1\n      sload\n      dup3\n      dup3\n      sstore\n      swap1\n      0x00\n      mstore\n      keccak256(0x00, 0x20)\n      swap1\n      dup2\n      add\n      swap3\n      dup3\n      iszero\n      tag_80\n      jumpi\n      swap2\n      0x20\n      mul\n      dup3\n      add\n    tag_81:\n      dup3\n      dup2\n      gt\n      iszero\n      tag_82\n      jumpi\n      dup3\n      mload\n      dup3\n      exp(0x0100, 0x00)\n      dup2\n      sload\n      dup2\n      0xffffffffffffffffffffffffffffffffffffffff\n      mul\n      not\n      and\n      swap1\n      dup4\n      0xffffffffffffffffffffffffffffffffffffffff\n      and\n      mul\n      or\n      swap1\n      sstore\n      pop\n      swap2\n      0x20\n      add\n      swap2\n      swap1\n      0x01\n      add\n      swap1\n      jump(tag_81)\n    tag_82:\n    tag_80:\n      pop\n      swap1\n      pop\n      tag_83\n      swap2\n      swap1\n      tag_84\n      jump\t// in\n    tag_83:\n      pop\n      swap1\n      jump\t// out\n    tag_84:\n    tag_85:\n      dup1\n      dup3\n      gt\n      iszero\n      tag_86\n      jumpi\n      0x00\n      dup2\n      0x00\n      swap1\n      sstore\n      pop\n      0x01\n      add\n      jump(tag_85)\n    tag_86:\n      pop\n      swap1\n      jump\t// out\n        /* \"#utility.yul\":88:205   */\n    tag_88:\n        /* \"#utility.yul\":197:198   */\n      0x00\n        /* \"#utility.yul\":194:195   */\n      dup1\n        /* \"#utility.yul\":187:199   */\n      revert\n        /* \"#utility.yul\":334:460   */\n    tag_90:\n        /* \"#utility.yul\":371:378   */\n      0x00\n        /* \"#utility.yul\":411:453   */\n      0xffffffffffffffffffffffffffffffffffffffff\n        /* \"#utility.yul\":404:409   */\n      dup3\n        /* \"#utility.yul\":400:454   */\n      and\n        /* \"#utility.yul\":389:454   */\n      swap1\n      pop\n        /* \"#utility.yul\":334:460   */\n      swap2\n      swap1\n      pop\n      jump\t// out\n        /* \"#utility.yul\":466:562   */\n    tag_91:\n        /* \"#utility.yul\":503:510   */\n      0x00\n        /* \"#utility.yul\":532:556   */\n      tag_124\n        /* \"#utility.yul\":550:555   */\n      dup3\n        /* \"#utility.yul\":532:556   */\n      tag_90\n      jump\t// in\n    tag_124:\n        /* \"#utility.yul\":521:556   */\n      swap1\n      pop\n        /* \"#utility.yul\":466:562   */\n      swap2\n      swap1\n      pop\n      jump\t// out\n        /* \"#utility.yul\":568:690   */\n    tag_92:\n        /* \"#utility.yul\":641:665   */\n      tag_126\n        /* \"#utility.yul\":659:664   */\n      dup2\n        /* \"#utility.yul\":641:665   */\n      tag_91\n      jump\t// in\n    tag_126:\n        /* \"#utility.yul\":634:639   */\n      dup2\n        /* \"#utility.yul\":631:666   */\n      eq\n        /* \"#utility.yul\":621:684   */\n      tag_127\n      jumpi\n        /* \"#utility.yul\":680:681   */\n      0x00\n        /* \"#utility.yul\":677:678   */\n      dup1\n        /* \"#utility.yul\":670:682   */\n      revert\n        /* \"#utility.yul\":621:684   */\n    tag_127:\n        /* \"#utility.yul\":568:690   */\n      pop\n      jump\t// out\n        /* \"#utility.yul\":696:835   */\n    tag_93:\n        /* \"#utility.yul\":742:747   */\n      0x00\n        /* \"#utility.yul\":780:786   */\n      dup2\n        /* \"#utility.yul\":767:787   */\n      calldataload\n        /* \"#utility.yul\":758:787   */\n      swap1\n      pop\n        /* \"#utility.yul\":796:829   */\n      tag_129\n        /* \"#utility.yul\":823:828   */\n      dup2\n        /* \"#utility.yul\":796:829   */\n      tag_92\n      jump\t// in\n    tag_129:\n        /* \"#utility.yul\":696:835   */\n      swap3\n      swap2\n      pop\n      pop\n      jump\t// out\n        /* \"#utility.yul\":841:1170   */\n    tag_13:\n        /* \"#utility.yul\":900:906   */\n      0x00\n        /* \"#utility.yul\":949:951   */\n      0x20\n        /* \"#utility.yul\":937:946   */\n      dup3\n        /* \"#utility.yul\":928:935   */\n      dup5\n        /* \"#utility.yul\":924:947   */\n      sub\n        /* \"#utility.yul\":920:952   */\n      slt\n        /* \"#utility.yul\":917:1036   */\n      iszero\n      tag_131\n      jumpi\n        /* \"#utility.yul\":955:1034   */\n      tag_132\n      tag_88\n      jump\t// in\n    tag_132:\n        /* \"#utility.yul\":917:1036   */\n    tag_131:\n        /* \"#utility.yul\":1075:1076   */\n      0x00\n        /* \"#utility.yul\":1100:1153   */\n      tag_133\n        /* \"#utility.yul\":1145:1152   */\n      dup5\n        /* \"#utility.yul\":1136:1142   */\n      dup3\n        /* \"#utility.yul\":1125:1134   */\n      dup6\n        /* \"#utility.yul\":1121:1143   */\n      add\n        /* \"#utility.yul\":1100:1153   */\n      tag_93\n      jump\t// in\n    tag_133:\n        /* \"#utility.yul\":1090:1153   */\n      swap2\n      pop\n        /* \"#utility.yul\":1046:1163   */\n      pop\n        /* \"#utility.yul\":841:1170   */\n      swap3\n      swap2\n      pop\n      pop\n      jump\t// out\n        /* \"#utility.yul\":1176:1253   */\n    tag_94:\n        /* \"#utility.yul\":1213:1220   */\n      0x00\n        /* \"#utility.yul\":1242:1247   */\n      dup2\n        /* \"#utility.yul\":1231:1247   */\n      swap1\n      pop\n        /* \"#utility.yul\":1176:1253   */\n      swap2\n      swap1\n      pop\n      jump\t// out\n        /* \"#utility.yul\":1259:1377   */\n    tag_95:\n        /* \"#utility.yul\":1346:1370   */\n      tag_136\n        /* \"#utility.yul\":1364:1369   */\n      dup2\n        /* \"#utility.yul\":1346:1370   */\n      tag_94\n      jump\t// in\n    tag_136:\n        /* \"#utility.yul\":1341:1344   */\n      dup3\n        /* \"#utility.yul\":1334:1371   */\n      mstore\n        /* \"#utility.yul\":1259:1377   */\n      pop\n      pop\n      jump\t// out\n        /* \"#utility.yul\":1383:1605   */\n    tag_16:\n        /* \"#utility.yul\":1476:1480   */\n      0x00\n        /* \"#utility.yul\":1514:1516   */\n      0x20\n        /* \"#utility.yul\":1503:1512   */\n      dup3\n        /* \"#utility.yul\":1499:1517   */\n      add\n        /* \"#utility.yul\":1491:1517   */\n      swap1\n      pop\n        /* \"#utility.yul\":1527:1598   */\n      tag_138\n        /* \"#utility.yul\":1595:1596   */\n      0x00\n        /* \"#utility.yul\":1584:1593   */\n      dup4\n        /* \"#utility.yul\":1580:1597   */\n      add\n        /* \"#utility.yul\":1571:1577   */\n      dup5\n        /* \"#utility.yul\":1527:1598   */\n      tag_95\n      jump\t// in\n    tag_138:\n        /* \"#utility.yul\":1383:1605   */\n      swap3\n      swap2\n      pop\n      pop\n      jump\t// out\n        /* \"#utility.yul\":1611:1729   */\n    tag_96:\n        /* \"#utility.yul\":1698:1722   */\n      tag_140\n        /* \"#utility.yul\":1716:1721   */\n      dup2\n        /* \"#utility.yul\":1698:1722   */\n      tag_91\n      jump\t// in\n    tag_140:\n        /* \"#utility.yul\":1693:1696   */\n      dup3\n        /* \"#utility.yul\":1686:1723   */\n      mstore\n        /* \"#utility.yul\":1611:1729   */\n      pop\n      pop\n      jump\t// out\n        /* \"#utility.yul\":1735:1957   */\n    tag_21:\n        /* \"#utility.yul\":1828:1832   */\n      0x00\n        /* \"#utility.yul\":1866:1868   */\n      0x20\n        /* \"#utility.yul\":1855:1864   */\n      dup3\n        /* \"#utility.yul\":1851:1869   */\n      add\n        /* \"#utility.yul\":1843:1869   */\n      swap1\n      pop\n        /* \"#utility.yul\":1879:1950   */\n      tag_142\n        /* \"#utility.yul\":1947:1948   */\n      0x00\n        /* \"#utility.yul\":1936:1945   */\n      dup4\n        /* \"#utility.yul\":1932:1949   */\n      add\n        /* \"#utility.yul\":1923:1929   */\n      dup5\n        /* \"#utility.yul\":1879:1950   */\n      tag_96\n      jump\t// in\n    tag_142:\n        /* \"#utility.yul\":1735:1957   */\n      swap3\n      swap2\n      pop\n      pop\n      jump\t// out\n        /* \"#utility.yul\":1963:2085   */\n    tag_97:\n        /* \"#utility.yul\":2036:2060   */\n      tag_144\n        /* \"#utility.yul\":2054:2059   */\n      dup2\n        /* \"#utility.yul\":2036:2060   */\n      tag_94\n      jump\t// in\n    tag_144:\n        /* \"#utility.yul\":2029:2034   */\n      dup2\n        /* \"#utility.yul\":2026:2061   */\n      eq\n        /* \"#utility.yul\":2016:2079   */\n      tag_145\n      jumpi\n        /* \"#utility.yul\":2075:2076   */\n      0x00\n        /* \"#utility.yul\":2072:2073   */\n      dup1\n        /* \"#utility.yul\":2065:2077   */\n      revert\n        /* \"#utility.yul\":2016:2079   */\n    tag_145:\n        /* \"#utility.yul\":1963:2085   */\n      pop\n      jump\t// out\n        /* \"#utility.yul\":2091:2230   */\n    tag_98:\n        /* \"#utility.yul\":2137:2142   */\n      0x00\n        /* \"#utility.yul\":2175:2181   */\n      dup2\n        /* \"#utility.yul\":2162:2182   */\n      calldataload\n        /* \"#utility.yul\":2153:2182   */\n      swap1\n      pop\n        /* \"#utility.yul\":2191:2224   */\n      tag_147\n        /* \"#utility.yul\":2218:2223   */\n      dup2\n        /* \"#utility.yul\":2191:2224   */\n      tag_97\n      jump\t// in\n    tag_147:\n        /* \"#utility.yul\":2091:2230   */\n      swap3\n      swap2\n      pop\n      pop\n      jump\t// out\n        /* \"#utility.yul\":2236:2565   */\n    tag_27:\n        /* \"#utility.yul\":2295:2301   */\n      0x00\n        /* \"#utility.yul\":2344:2346   */\n      0x20\n        /* \"#utility.yul\":2332:2341   */\n      dup3\n        /* \"#utility.yul\":2323:2330   */\n      dup5\n        /* \"#utility.yul\":2319:2342   */\n      sub\n        /* \"#utility.yul\":2315:2347   */\n      slt\n        /* \"#utility.yul\":2312:2431   */\n      iszero\n      tag_149\n      jumpi\n        /* \"#utility.yul\":2350:2429   */\n      tag_150\n      tag_88\n      jump\t// in\n    tag_150:\n        /* \"#utility.yul\":2312:2431   */\n    tag_149:\n        /* \"#utility.yul\":2470:2471   */\n      0x00\n        /* \"#utility.yul\":2495:2548   */\n      tag_151\n        /* \"#utility.yul\":2540:2547   */\n      dup5\n        /* \"#utility.yul\":2531:2537   */\n      dup3\n        /* \"#utility.yul\":2520:2529   */\n      dup6\n        /* \"#utility.yul\":2516:2538   */\n      add\n        /* \"#utility.yul\":2495:2548   */\n      tag_98\n      jump\t// in\n    tag_151:\n        /* \"#utility.yul\":2485:2548   */\n      swap2\n      pop\n        /* \"#utility.yul\":2441:2558   */\n      pop\n        /* \"#utility.yul\":2236:2565   */\n      swap3\n      swap2\n      pop\n      pop\n      jump\t// out\n        /* \"#utility.yul\":2571:2740   */\n    tag_99:\n        /* \"#utility.yul\":2655:2666   */\n      0x00\n        /* \"#utility.yul\":2689:2695   */\n      dup3\n        /* \"#utility.yul\":2684:2687   */\n      dup3\n        /* \"#utility.yul\":2677:2696   */\n      mstore\n        /* \"#utility.yul\":2729:2733   */\n      0x20\n        /* \"#utility.yul\":2724:2727   */\n      dup3\n        /* \"#utility.yul\":2720:2734   */\n      add\n        /* \"#utility.yul\":2705:2734   */\n      swap1\n      pop\n        /* \"#utility.yul\":2571:2740   */\n      swap3\n      swap2\n      pop\n      pop\n      jump\t// out\n        /* \"#utility.yul\":2746:2920   */\n    tag_100:\n        /* \"#utility.yul\":2886:2912   */\n      0x53656e646572206973206e6f7420746865206f776e6572210000000000000000\n        /* \"#utility.yul\":2882:2883   */\n      0x00\n        /* \"#utility.yul\":2874:2880   */\n      dup3\n        /* \"#utility.yul\":2870:2884   */\n      add\n        /* \"#utility.yul\":2863:2913   */\n      mstore\n        /* \"#utility.yul\":2746:2920   */\n      pop\n      jump\t// out\n        /* \"#utility.yul\":2926:3292   */\n    tag_101:\n        /* \"#utility.yul\":3068:3071   */\n      0x00\n        /* \"#utility.yul\":3089:3156   */\n      tag_155\n        /* \"#utility.yul\":3153:3155   */\n      0x18\n        /* \"#utility.yul\":3148:3151   */\n      dup4\n        /* \"#utility.yul\":3089:3156   */\n      tag_99\n      jump\t// in\n    tag_155:\n        /* \"#utility.yul\":3082:3156   */\n      swap2\n      pop\n        /* \"#utility.yul\":3165:3258   */\n      tag_156\n        /* \"#utility.yul\":3254:3257   */\n      dup3\n        /* \"#utility.yul\":3165:3258   */\n      tag_100\n      jump\t// in\n    tag_156:\n        /* \"#utility.yul\":3283:3285   */\n      0x20\n        /* \"#utility.yul\":3278:3281   */\n      dup3\n        /* \"#utility.yul\":3274:3286   */\n      add\n        /* \"#utility.yul\":3267:3286   */\n      swap1\n      pop\n        /* \"#utility.yul\":2926:3292   */\n      swap2\n      swap1\n      pop\n      jump\t// out\n        /* \"#utility.yul\":3298:3717   */\n    tag_33:\n        /* \"#utility.yul\":3464:3468   */\n      0x00\n        /* \"#utility.yul\":3502:3504   */\n      0x20\n        /* \"#utility.yul\":3491:3500   */\n      dup3\n        /* \"#utility.yul\":3487:3505   */\n      add\n        /* \"#utility.yul\":3479:3505   */\n      swap1\n      pop\n        /* \"#utility.yul\":3551:3560   */\n      dup2\n        /* \"#utility.yul\":3545:3549   */\n      dup2\n        /* \"#utility.yul\":3541:3561   */\n      sub\n        /* \"#utility.yul\":3537:3538   */\n      0x00\n        /* \"#utility.yul\":3526:3535   */\n      dup4\n        /* \"#utility.yul\":3522:3539   */\n      add\n        /* \"#utility.yul\":3515:3562   */\n      mstore\n        /* \"#utility.yul\":3579:3710   */\n      tag_158\n        /* \"#utility.yul\":3705:3709   */\n      dup2\n        /* \"#utility.yul\":3579:3710   */\n      tag_101\n      jump\t// in\n    tag_158:\n        /* \"#utility.yul\":3571:3710   */\n      swap1\n      pop\n        /* \"#utility.yul\":3298:3717   */\n      swap2\n      swap1\n      pop\n      jump\t// out\n        /* \"#utility.yul\":3723:3903   */\n    tag_40:\n        /* \"#utility.yul\":3771:3848   */\n      0x4e487b7100000000000000000000000000000000000000000000000000000000\n        /* \"#utility.yul\":3768:3769   */\n      0x00\n        /* \"#utility.yul\":3761:3849   */\n      mstore\n        /* \"#utility.yul\":3868:3872   */\n      0x32\n        /* \"#utility.yul\":3865:3866   */\n      0x04\n        /* \"#utility.yul\":3858:3873   */\n      mstore\n        /* \"#utility.yul\":3892:3896   */\n      0x24\n        /* \"#utility.yul\":3889:3890   */\n      0x00\n        /* \"#utility.yul\":3882:3897   */\n      revert\n        /* \"#utility.yul\":3909:4089   */\n    tag_44:\n        /* \"#utility.yul\":3957:4034   */\n      0x4e487b7100000000000000000000000000000000000000000000000000000000\n        /* \"#utility.yul\":3954:3955   */\n      0x00\n        /* \"#utility.yul\":3947:4035   */\n      mstore\n        /* \"#utility.yul\":4054:4058   */\n      0x41\n        /* \"#utility.yul\":4051:4052   */\n      0x04\n        /* \"#utility.yul\":4044:4059   */\n      mstore\n        /* \"#utility.yul\":4078:4082   */\n      0x24\n        /* \"#utility.yul\":4075:4076   */\n      0x00\n        /* \"#utility.yul\":4068:4083   */\n      revert\n        /* \"#utility.yul\":4095:4242   */\n    tag_102:\n        /* \"#utility.yul\":4196:4207   */\n      0x00\n        /* \"#utility.yul\":4233:4236   */\n      dup2\n        /* \"#utility.yul\":4218:4236   */\n      swap1\n      pop\n        /* \"#utility.yul\":4095:4242   */\n      swap3\n      swap2\n      pop\n      pop\n      jump\t// out\n        /* \"#utility.yul\":4248:4362   */\n    tag_103:\n      pop\n      jump\t// out\n        /* \"#utility.yul\":4368:4766   */\n    tag_104:\n        /* \"#utility.yul\":4527:4530   */\n      0x00\n        /* \"#utility.yul\":4548:4631   */\n      tag_164\n        /* \"#utility.yul\":4629:4630   */\n      0x00\n        /* \"#utility.yul\":4624:4627   */\n      dup4\n        /* \"#utility.yul\":4548:4631   */\n      tag_102\n      jump\t// in\n    tag_164:\n        /* \"#utility.yul\":4541:4631   */\n      swap2\n      pop\n        /* \"#utility.yul\":4640:4733   */\n      tag_165\n        /* \"#utility.yul\":4729:4732   */\n      dup3\n        /* \"#utility.yul\":4640:4733   */\n      tag_103\n      jump\t// in\n    tag_165:\n        /* \"#utility.yul\":4758:4759   */\n      0x00\n        /* \"#utility.yul\":4753:4756   */\n      dup3\n        /* \"#utility.yul\":4749:4760   */\n      add\n        /* \"#utility.yul\":4742:4760   */\n      swap1\n      pop\n        /* \"#utility.yul\":4368:4766   */\n      swap2\n      swap1\n      pop\n      jump\t// out\n        /* \"#utility.yul\":4772:5151   */\n    tag_49:\n        /* \"#utility.yul\":4956:4959   */\n      0x00\n        /* \"#utility.yul\":4978:5125   */\n      tag_167\n        /* \"#utility.yul\":5121:5124   */\n      dup3\n        /* \"#utility.yul\":4978:5125   */\n      tag_104\n      jump\t// in\n    tag_167:\n        /* \"#utility.yul\":4971:5125   */\n      swap2\n      pop\n        /* \"#utility.yul\":5142:5145   */\n      dup2\n        /* \"#utility.yul\":5135:5145   */\n      swap1\n      pop\n        /* \"#utility.yul\":4772:5151   */\n      swap2\n      swap1\n      pop\n      jump\t// out\n        /* \"#utility.yul\":5157:5319   */\n    tag_105:\n        /* \"#utility.yul\":5297:5311   */\n      0x43616c6c204661696c6564210000000000000000000000000000000000000000\n        /* \"#utility.yul\":5293:5294   */\n      0x00\n        /* \"#utility.yul\":5285:5291   */\n      dup3\n        /* \"#utility.yul\":5281:5295   */\n      add\n        /* \"#utility.yul\":5274:5312   */\n      mstore\n        /* \"#utility.yul\":5157:5319   */\n      pop\n      jump\t// out\n        /* \"#utility.yul\":5325:5691   */\n    tag_106:\n        /* \"#utility.yul\":5467:5470   */\n      0x00\n        /* \"#utility.yul\":5488:5555   */\n      tag_170\n        /* \"#utility.yul\":5552:5554   */\n      0x0c\n        /* \"#utility.yul\":5547:5550   */\n      dup4\n        /* \"#utility.yul\":5488:5555   */\n      tag_99\n      jump\t// in\n    tag_170:\n        /* \"#utility.yul\":5481:5555   */\n      swap2\n      pop\n        /* \"#utility.yul\":5564:5657   */\n      tag_171\n        /* \"#utility.yul\":5653:5656   */\n      dup3\n        /* \"#utility.yul\":5564:5657   */\n      tag_105\n      jump\t// in\n    tag_171:\n        /* \"#utility.yul\":5682:5684   */\n      0x20\n        /* \"#utility.yul\":5677:5680   */\n      dup3\n        /* \"#utility.yul\":5673:5685   */\n      add\n        /* \"#utility.yul\":5666:5685   */\n      swap1\n      pop\n        /* \"#utility.yul\":5325:5691   */\n      swap2\n      swap1\n      pop\n      jump\t// out\n        /* \"#utility.yul\":5697:6116   */\n    tag_55:\n        /* \"#utility.yul\":5863:5867   */\n      0x00\n        /* \"#utility.yul\":5901:5903   */\n      0x20\n        /* \"#utility.yul\":5890:5899   */\n      dup3\n        /* \"#utility.yul\":5886:5904   */\n      add\n        /* \"#utility.yul\":5878:5904   */\n      swap1\n      pop\n        /* \"#utility.yul\":5950:5959   */\n      dup2\n        /* \"#utility.yul\":5944:5948   */\n      dup2\n        /* \"#utility.yul\":5940:5960   */\n      sub\n        /* \"#utility.yul\":5936:5937   */\n      0x00\n        /* \"#utility.yul\":5925:5934   */\n      dup4\n        /* \"#utility.yul\":5921:5938   */\n      add\n        /* \"#utility.yul\":5914:5961   */\n      mstore\n        /* \"#utility.yul\":5978:6109   */\n      tag_173\n        /* \"#utility.yul\":6104:6108   */\n      dup2\n        /* \"#utility.yul\":5978:6109   */\n      tag_106\n      jump\t// in\n    tag_173:\n        /* \"#utility.yul\":5970:6109   */\n      swap1\n      pop\n        /* \"#utility.yul\":5697:6116   */\n      swap2\n      swap1\n      pop\n      jump\t// out\n        /* \"#utility.yul\":6122:6294   */\n    tag_107:\n        /* \"#utility.yul\":6262:6286   */\n      0x6469646e27742073656e6420656e6f7567682045544800000000000000000000\n        /* \"#utility.yul\":6258:6259   */\n      0x00\n        /* \"#utility.yul\":6250:6256   */\n      dup3\n        /* \"#utility.yul\":6246:6260   */\n      add\n        /* \"#utility.yul\":6239:6287   */\n      mstore\n        /* \"#utility.yul\":6122:6294   */\n      pop\n      jump\t// out\n        /* \"#utility.yul\":6300:6666   */\n    tag_108:\n        /* \"#utility.yul\":6442:6445   */\n      0x00\n        /* \"#utility.yul\":6463:6530   */\n      tag_176\n        /* \"#utility.yul\":6527:6529   */\n      0x16\n        /* \"#utility.yul\":6522:6525   */\n      dup4\n        /* \"#utility.yul\":6463:6530   */\n      tag_99\n      jump\t// in\n    tag_176:\n        /* \"#utility.yul\":6456:6530   */\n      swap2\n      pop\n        /* \"#utility.yul\":6539:6632   */\n      tag_177\n        /* \"#utility.yul\":6628:6631   */\n      dup3\n        /* \"#utility.yul\":6539:6632   */\n      tag_107\n      jump\t// in\n    tag_177:\n        /* \"#utility.yul\":6657:6659   */\n      0x20\n        /* \"#utility.yul\":6652:6655   */\n      dup3\n        /* \"#utility.yul\":6648:6660   */\n      add\n        /* \"#utility.yul\":6641:6660   */\n      swap1\n      pop\n        /* \"#utility.yul\":6300:6666   */\n      swap2\n      swap1\n      pop\n      jump\t// out\n        /* \"#utility.yul\":6672:7091   */\n    tag_61:\n        /* \"#utility.yul\":6838:6842   */\n      0x00\n        /* \"#utility.yul\":6876:6878   */\n      0x20\n        /* \"#utility.yul\":6865:6874   */\n      dup3\n        /* \"#utility.yul\":6861:6879   */\n      add\n        /* \"#utility.yul\":6853:6879   */\n      swap1\n      pop\n        /* \"#utility.yul\":6925:6934   */\n      dup2\n        /* \"#utility.yul\":6919:6923   */\n      dup2\n        /* \"#utility.yul\":6915:6935   */\n      sub\n        /* \"#utility.yul\":6911:6912   */\n      0x00\n        /* \"#utility.yul\":6900:6909   */\n      dup4\n        /* \"#utility.yul\":6896:6913   */\n      add\n        /* \"#utility.yul\":6889:6936   */\n      mstore\n        /* \"#utility.yul\":6953:7084   */\n      tag_179\n        /* \"#utility.yul\":7079:7083   */\n      dup2\n        /* \"#utility.yul\":6953:7084   */\n      tag_108\n      jump\t// in\n    tag_179:\n        /* \"#utility.yul\":6945:7084   */\n      swap1\n      pop\n        /* \"#utility.yul\":6672:7091   */\n      swap2\n      swap1\n      pop\n      jump\t// out\n        /* \"#utility.yul\":7097:7277   */\n    tag_109:\n        /* \"#utility.yul\":7145:7222   */\n      0x4e487b7100000000000000000000000000000000000000000000000000000000\n        /* \"#utility.yul\":7142:7143   */\n      0x00\n        /* \"#utility.yul\":7135:7223   */\n      mstore\n        /* \"#utility.yul\":7242:7246   */\n      0x11\n        /* \"#utility.yul\":7239:7240   */\n      0x04\n        /* \"#utility.yul\":7232:7247   */\n      mstore\n        /* \"#utility.yul\":7266:7270   */\n      0x24\n        /* \"#utility.yul\":7263:7264   */\n      0x00\n        /* \"#utility.yul\":7256:7271   */\n      revert\n        /* \"#utility.yul\":7283:7474   */\n    tag_64:\n        /* \"#utility.yul\":7323:7326   */\n      0x00\n        /* \"#utility.yul\":7342:7362   */\n      tag_182\n        /* \"#utility.yul\":7360:7361   */\n      dup3\n        /* \"#utility.yul\":7342:7362   */\n      tag_94\n      jump\t// in\n    tag_182:\n        /* \"#utility.yul\":7337:7362   */\n      swap2\n      pop\n        /* \"#utility.yul\":7376:7396   */\n      tag_183\n        /* \"#utility.yul\":7394:7395   */\n      dup4\n        /* \"#utility.yul\":7376:7396   */\n      tag_94\n      jump\t// in\n    tag_183:\n        /* \"#utility.yul\":7371:7396   */\n      swap3\n      pop\n        /* \"#utility.yul\":7419:7420   */\n      dup3\n        /* \"#utility.yul\":7416:7417   */\n      dup3\n        /* \"#utility.yul\":7412:7421   */\n      add\n        /* \"#utility.yul\":7405:7421   */\n      swap1\n      pop\n        /* \"#utility.yul\":7440:7443   */\n      dup1\n        /* \"#utility.yul\":7437:7438   */\n      dup3\n        /* \"#utility.yul\":7434:7444   */\n      gt\n        /* \"#utility.yul\":7431:7467   */\n      iszero\n      tag_184\n      jumpi\n        /* \"#utility.yul\":7447:7465   */\n      tag_185\n      tag_109\n      jump\t// in\n    tag_185:\n        /* \"#utility.yul\":7431:7467   */\n    tag_184:\n        /* \"#utility.yul\":7283:7474   */\n      swap3\n      swap2\n      pop\n      pop\n      jump\t// out\n        /* \"#utility.yul\":7480:7890   */\n    tag_71:\n        /* \"#utility.yul\":7520:7527   */\n      0x00\n        /* \"#utility.yul\":7543:7563   */\n      tag_187\n        /* \"#utility.yul\":7561:7562   */\n      dup3\n        /* \"#utility.yul\":7543:7563   */\n      tag_94\n      jump\t// in\n    tag_187:\n        /* \"#utility.yul\":7538:7563   */\n      swap2\n      pop\n        /* \"#utility.yul\":7577:7597   */\n      tag_188\n        /* \"#utility.yul\":7595:7596   */\n      dup4\n        /* \"#utility.yul\":7577:7597   */\n      tag_94\n      jump\t// in\n    tag_188:\n        /* \"#utility.yul\":7572:7597   */\n      swap3\n      pop\n        /* \"#utility.yul\":7632:7633   */\n      dup3\n        /* \"#utility.yul\":7629:7630   */\n      dup3\n        /* \"#utility.yul\":7625:7634   */\n      mul\n        /* \"#utility.yul\":7654:7684   */\n      tag_189\n        /* \"#utility.yul\":7672:7683   */\n      dup2\n        /* \"#utility.yul\":7654:7684   */\n      tag_94\n      jump\t// in\n    tag_189:\n        /* \"#utility.yul\":7643:7684   */\n      swap2\n      pop\n        /* \"#utility.yul\":7833:7834   */\n      dup3\n        /* \"#utility.yul\":7824:7831   */\n      dup3\n        /* \"#utility.yul\":7820:7835   */\n      div\n        /* \"#utility.yul\":7817:7818   */\n      dup5\n        /* \"#utility.yul\":7814:7836   */\n      eq\n        /* \"#utility.yul\":7794:7795   */\n      dup4\n        /* \"#utility.yul\":7787:7796   */\n      iszero\n        /* \"#utility.yul\":7767:7850   */\n      or\n        /* \"#utility.yul\":7744:7883   */\n      tag_190\n      jumpi\n        /* \"#utility.yul\":7863:7881   */\n      tag_191\n      tag_109\n      jump\t// in\n    tag_191:\n        /* \"#utility.yul\":7744:7883   */\n    tag_190:\n        /* \"#utility.yul\":7528:7890   */\n      pop\n        /* \"#utility.yul\":7480:7890   */\n      swap3\n      swap2\n      pop\n      pop\n      jump\t// out\n        /* \"#utility.yul\":7896:8076   */\n    tag_110:\n        /* \"#utility.yul\":7944:8021   */\n      0x4e487b7100000000000000000000000000000000000000000000000000000000\n        /* \"#utility.yul\":7941:7942   */\n      0x00\n        /* \"#utility.yul\":7934:8022   */\n      mstore\n        /* \"#utility.yul\":8041:8045   */\n      0x12\n        /* \"#utility.yul\":8038:8039   */\n      0x04\n        /* \"#utility.yul\":8031:8046   */\n      mstore\n        /* \"#utility.yul\":8065:8069   */\n      0x24\n        /* \"#utility.yul\":8062:8063   */\n      0x00\n        /* \"#utility.yul\":8055:8070   */\n      revert\n        /* \"#utility.yul\":8082:8267   */\n    tag_73:\n        /* \"#utility.yul\":8122:8123   */\n      0x00\n        /* \"#utility.yul\":8139:8159   */\n      tag_194\n        /* \"#utility.yul\":8157:8158   */\n      dup3\n        /* \"#utility.yul\":8139:8159   */\n      tag_94\n      jump\t// in\n    tag_194:\n        /* \"#utility.yul\":8134:8159   */\n      swap2\n      pop\n        /* \"#utility.yul\":8173:8193   */\n      tag_195\n        /* \"#utility.yul\":8191:8192   */\n      dup4\n        /* \"#utility.yul\":8173:8193   */\n      tag_94\n      jump\t// in\n    tag_195:\n        /* \"#utility.yul\":8168:8193   */\n      swap3\n      pop\n        /* \"#utility.yul\":8212:8213   */\n      dup3\n        /* \"#utility.yul\":8202:8237   */\n      tag_196\n      jumpi\n        /* \"#utility.yul\":8217:8235   */\n      tag_197\n      tag_110\n      jump\t// in\n    tag_197:\n        /* \"#utility.yul\":8202:8237   */\n    tag_196:\n        /* \"#utility.yul\":8259:8260   */\n      dup3\n        /* \"#utility.yul\":8256:8257   */\n      dup3\n        /* \"#utility.yul\":8252:8261   */\n      div\n        /* \"#utility.yul\":8247:8261   */\n      swap1\n      pop\n        /* \"#utility.yul\":8082:8267   */\n      swap3\n      swap2\n      pop\n      pop\n      jump\t// out\n        /* \"#utility.yul\":8273:8378   */\n    tag_111:\n        /* \"#utility.yul\":8309:8316   */\n      0x00\n        /* \"#utility.yul\":8349:8371   */\n      0xffffffffffffffffffff\n        /* \"#utility.yul\":8342:8347   */\n      dup3\n        /* \"#utility.yul\":8338:8372   */\n      and\n        /* \"#utility.yul\":8327:8372   */\n      swap1\n      pop\n        /* \"#utility.yul\":8273:8378   */\n      swap2\n      swap1\n      pop\n      jump\t// out\n        /* \"#utility.yul\":8384:8504   */\n    tag_112:\n        /* \"#utility.yul\":8456:8479   */\n      tag_200\n        /* \"#utility.yul\":8473:8478   */\n      dup2\n        /* \"#utility.yul\":8456:8479   */\n      tag_111\n      jump\t// in\n    tag_200:\n        /* \"#utility.yul\":8449:8454   */\n      dup2\n        /* \"#utility.yul\":8446:8480   */\n      eq\n        /* \"#utility.yul\":8436:8498   */\n      tag_201\n      jumpi\n        /* \"#utility.yul\":8494:8495   */\n      0x00\n        /* \"#utility.yul\":8491:8492   */\n      dup1\n        /* \"#utility.yul\":8484:8496   */\n      revert\n        /* \"#utility.yul\":8436:8498   */\n    tag_201:\n        /* \"#utility.yul\":8384:8504   */\n      pop\n      jump\t// out\n        /* \"#utility.yul\":8510:8651   */\n    tag_113:\n        /* \"#utility.yul\":8566:8571   */\n      0x00\n        /* \"#utility.yul\":8597:8603   */\n      dup2\n        /* \"#utility.yul\":8591:8604   */\n      mload\n        /* \"#utility.yul\":8582:8604   */\n      swap1\n      pop\n        /* \"#utility.yul\":8613:8645   */\n      tag_203\n        /* \"#utility.yul\":8639:8644   */\n      dup2\n        /* \"#utility.yul\":8613:8645   */\n      tag_112\n      jump\t// in\n    tag_203:\n        /* \"#utility.yul\":8510:8651   */\n      swap3\n      swap2\n      pop\n      pop\n      jump\t// out\n        /* \"#utility.yul\":8657:8733   */\n    tag_114:\n        /* \"#utility.yul\":8693:8700   */\n      0x00\n        /* \"#utility.yul\":8722:8727   */\n      dup2\n        /* \"#utility.yul\":8711:8727   */\n      swap1\n      pop\n        /* \"#utility.yul\":8657:8733   */\n      swap2\n      swap1\n      pop\n      jump\t// out\n        /* \"#utility.yul\":8739:8859   */\n    tag_115:\n        /* \"#utility.yul\":8811:8834   */\n      tag_206\n        /* \"#utility.yul\":8828:8833   */\n      dup2\n        /* \"#utility.yul\":8811:8834   */\n      tag_114\n      jump\t// in\n    tag_206:\n        /* \"#utility.yul\":8804:8809   */\n      dup2\n        /* \"#utility.yul\":8801:8835   */\n      eq\n        /* \"#utility.yul\":8791:8853   */\n      tag_207\n      jumpi\n        /* \"#utility.yul\":8849:8850   */\n      0x00\n        /* \"#utility.yul\":8846:8847   */\n      dup1\n        /* \"#utility.yul\":8839:8851   */\n      revert\n        /* \"#utility.yul\":8791:8853   */\n    tag_207:\n        /* \"#utility.yul\":8739:8859   */\n      pop\n      jump\t// out\n        /* \"#utility.yul\":8865:9006   */\n    tag_116:\n        /* \"#utility.yul\":8921:8926   */\n      0x00\n        /* \"#utility.yul\":8952:8958   */\n      dup2\n        /* \"#utility.yul\":8946:8959   */\n      mload\n        /* \"#utility.yul\":8937:8959   */\n      swap1\n      pop\n        /* \"#utility.yul\":8968:9000   */\n      tag_209\n        /* \"#utility.yul\":8994:8999   */\n      dup2\n        /* \"#utility.yul\":8968:9000   */\n      tag_115\n      jump\t// in\n    tag_209:\n        /* \"#utility.yul\":8865:9006   */\n      swap3\n      swap2\n      pop\n      pop\n      jump\t// out\n        /* \"#utility.yul\":9012:9155   */\n    tag_117:\n        /* \"#utility.yul\":9069:9074   */\n      0x00\n        /* \"#utility.yul\":9100:9106   */\n      dup2\n        /* \"#utility.yul\":9094:9107   */\n      mload\n        /* \"#utility.yul\":9085:9107   */\n      swap1\n      pop\n        /* \"#utility.yul\":9116:9149   */\n      tag_211\n        /* \"#utility.yul\":9143:9148   */\n      dup2\n        /* \"#utility.yul\":9116:9149   */\n      tag_97\n      jump\t// in\n    tag_211:\n        /* \"#utility.yul\":9012:9155   */\n      swap3\n      swap2\n      pop\n      pop\n      jump\t// out\n        /* \"#utility.yul\":9161:10132   */\n    tag_78:\n        /* \"#utility.yul\":9264:9270   */\n      0x00\n        /* \"#utility.yul\":9272:9278   */\n      dup1\n        /* \"#utility.yul\":9280:9286   */\n      0x00\n        /* \"#utility.yul\":9288:9294   */\n      dup1\n        /* \"#utility.yul\":9296:9302   */\n      0x00\n        /* \"#utility.yul\":9345:9348   */\n      0xa0\n        /* \"#utility.yul\":9333:9342   */\n      dup7\n        /* \"#utility.yul\":9324:9331   */\n      dup9\n        /* \"#utility.yul\":9320:9343   */\n      sub\n        /* \"#utility.yul\":9316:9349   */\n      slt\n        /* \"#utility.yul\":9313:9433   */\n      iszero\n      tag_213\n      jumpi\n        /* \"#utility.yul\":9352:9431   */\n      tag_214\n      tag_88\n      jump\t// in\n    tag_214:\n        /* \"#utility.yul\":9313:9433   */\n    tag_213:\n        /* \"#utility.yul\":9472:9473   */\n      0x00\n        /* \"#utility.yul\":9497:9560   */\n      tag_215\n        /* \"#utility.yul\":9552:9559   */\n      dup9\n        /* \"#utility.yul\":9543:9549   */\n      dup3\n        /* \"#utility.yul\":9532:9541   */\n      dup10\n        /* \"#utility.yul\":9528:9550   */\n      add\n        /* \"#utility.yul\":9497:9560   */\n      tag_113\n      jump\t// in\n    tag_215:\n        /* \"#utility.yul\":9487:9560   */\n      swap6\n      pop\n        /* \"#utility.yul\":9443:9570   */\n      pop\n        /* \"#utility.yul\":9609:9611   */\n      0x20\n        /* \"#utility.yul\":9635:9698   */\n      tag_216\n        /* \"#utility.yul\":9690:9697   */\n      dup9\n        /* \"#utility.yul\":9681:9687   */\n      dup3\n        /* \"#utility.yul\":9670:9679   */\n      dup10\n        /* \"#utility.yul\":9666:9688   */\n      add\n        /* \"#utility.yul\":9635:9698   */\n      tag_116\n      jump\t// in\n    tag_216:\n        /* \"#utility.yul\":9625:9698   */\n      swap5\n      pop\n        /* \"#utility.yul\":9580:9708   */\n      pop\n        /* \"#utility.yul\":9747:9749   */\n      0x40\n        /* \"#utility.yul\":9773:9837   */\n      tag_217\n        /* \"#utility.yul\":9829:9836   */\n      dup9\n        /* \"#utility.yul\":9820:9826   */\n      dup3\n        /* \"#utility.yul\":9809:9818   */\n      dup10\n        /* \"#utility.yul\":9805:9827   */\n      add\n        /* \"#utility.yul\":9773:9837   */\n      tag_117\n      jump\t// in\n    tag_217:\n        /* \"#utility.yul\":9763:9837   */\n      swap4\n      pop\n        /* \"#utility.yul\":9718:9847   */\n      pop\n        /* \"#utility.yul\":9886:9888   */\n      0x60\n        /* \"#utility.yul\":9912:9976   */\n      tag_218\n        /* \"#utility.yul\":9968:9975   */\n      dup9\n        /* \"#utility.yul\":9959:9965   */\n      dup3\n        /* \"#utility.yul\":9948:9957   */\n      dup10\n        /* \"#utility.yul\":9944:9966   */\n      add\n        /* \"#utility.yul\":9912:9976   */\n      tag_117\n      jump\t// in\n    tag_218:\n        /* \"#utility.yul\":9902:9976   */\n      swap3\n      pop\n        /* \"#utility.yul\":9857:9986   */\n      pop\n        /* \"#utility.yul\":10025:10028   */\n      0x80\n        /* \"#utility.yul\":10052:10115   */\n      tag_219\n        /* \"#utility.yul\":10107:10114   */\n      dup9\n        /* \"#utility.yul\":10098:10104   */\n      dup3\n        /* \"#utility.yul\":10087:10096   */\n      dup10\n        /* \"#utility.yul\":10083:10105   */\n      add\n        /* \"#utility.yul\":10052:10115   */\n      tag_113\n      jump\t// in\n    tag_219:\n        /* \"#utility.yul\":10042:10115   */\n      swap2\n      pop\n        /* \"#utility.yul\":9996:10125   */\n      pop\n        /* \"#utility.yul\":9161:10132   */\n      swap3\n      swap6\n      pop\n      swap3\n      swap6\n      swap1\n      swap4\n      pop\n      jump\t// out\n\n    auxdata: 0xa2646970667358221220bbec5f6b6e56a77f54a291a260e9424a8ac188dc3d2ab19eda2fc0683415921f64736f6c634300081a0033\n}\n",
				"bytecode": {
					"linkReferences": {},
					"object": "6080604052674563918244f400005f553480156019575f80fd5b503360035f6101000a81548173ffffffffffffffffffffffffffffffffffffffff021916908373ffffffffffffffffffffffffffffffffffffffff160217905550610b8e806100675f395ff3fe608060405260043610610049575f3560e01c80633ccfd60b1461004d5780633e47d6f3146100635780638da5cb5b1461009f578063b60d4288146100c9578063dc0d3dff146100d3575b5f80fd5b348015610058575f80fd5b5061006161010f565b005b34801561006e575f80fd5b50610089600480360381019061008491906106a1565b610347565b60405161009691906106e4565b60405180910390f35b3480156100aa575f80fd5b506100b361035c565b6040516100c0919061070c565b60405180910390f35b6100d1610381565b005b3480156100de575f80fd5b506100f960048036038101906100f4919061074f565b610489565b604051610106919061070c565b60405180910390f35b60035f9054906101000a900473ffffffffffffffffffffffffffffffffffffffff1673ffffffffffffffffffffffffffffffffffffffff163373ffffffffffffffffffffffffffffffffffffffff161461019e576040517f08c379a0000000000000000000000000000000000000000000000000000000008152600401610195906107d4565b60405180910390fd5b5f5b60018054905081101561023c575f600182815481106101c2576101c16107f2565b5b905f5260205f20015f9054906101000a900473ffffffffffffffffffffffffffffffffffffffff1690505f60025f8373ffffffffffffffffffffffffffffffffffffffff1673ffffffffffffffffffffffffffffffffffffffff1681526020019081526020015f20819055505080806001019150506101a0565b505f67ffffffffffffffff8111156102575761025661081f565b5b6040519080825280602002602001820160405280156102855781602001602082028036833780820191505090505b506001908051906020019061029b9291906105a1565b505f3373ffffffffffffffffffffffffffffffffffffffff16476040516102c190610879565b5f6040518083038185875af1925050503d805f81146102fb576040519150601f19603f3d011682016040523d82523d5f602084013e610300565b606091505b5050905080610344576040517f08c379a000000000000000000000000000000000000000000000000000000000815260040161033b906108d7565b60405180910390fd5b50565b6002602052805f5260405f205f915090505481565b60035f9054906101000a900473ffffffffffffffffffffffffffffffffffffffff1681565b670de0b6b3a7640000610393346104c4565b10156103d4576040517f08c379a00000000000000000000000000000000000000000000000000000000081526004016103cb9061093f565b60405180910390fd5b600133908060018154018082558091505060019003905f5260205f20015f9091909190916101000a81548173ffffffffffffffffffffffffffffffffffffffff021916908373ffffffffffffffffffffffffffffffffffffffff1602179055503460025f3373ffffffffffffffffffffffffffffffffffffffff1673ffffffffffffffffffffffffffffffffffffffff1681526020019081526020015f205f828254610480919061098a565b92505081905550565b60018181548110610498575f80fd5b905f5260205f20015f915054906101000a900473ffffffffffffffffffffffffffffffffffffffff1681565b5f806104ce6104fc565b90505f670de0b6b3a764000084836104e691906109bd565b6104f09190610a2b565b90508092505050919050565b5f8073694aa1769357215de4fac081bf1f309adc32530690505f8173ffffffffffffffffffffffffffffffffffffffff1663feaf968c6040518163ffffffff1660e01b815260040160a060405180830381865afa15801561055f573d5f803e3d5ffd5b505050506040513d601f19601f820116820180604052508101906105839190610ae1565b5050509150506402540be4008161059a91906109bd565b9250505090565b828054828255905f5260205f20908101928215610617579160200282015b82811115610616578251825f6101000a81548173ffffffffffffffffffffffffffffffffffffffff021916908373ffffffffffffffffffffffffffffffffffffffff160217905550916020019190600101906105bf565b5b5090506106249190610628565b5090565b5b8082111561063f575f815f905550600101610629565b5090565b5f80fd5b5f73ffffffffffffffffffffffffffffffffffffffff82169050919050565b5f61067082610647565b9050919050565b61068081610666565b811461068a575f80fd5b50565b5f8135905061069b81610677565b92915050565b5f602082840312156106b6576106b5610643565b5b5f6106c38482850161068d565b91505092915050565b5f819050919050565b6106de816106cc565b82525050565b5f6020820190506106f75f8301846106d5565b92915050565b61070681610666565b82525050565b5f60208201905061071f5f8301846106fd565b92915050565b61072e816106cc565b8114610738575f80fd5b50565b5f8135905061074981610725565b92915050565b5f6020828403121561076457610763610643565b5b5f6107718482850161073b565b91505092915050565b5f82825260208201905092915050565b7f53656e646572206973206e6f7420746865206f776e65722100000000000000005f82015250565b5f6107be60188361077a565b91506107c98261078a565b602082019050919050565b5f6020820190508181035f8301526107eb816107b2565b9050919050565b7f4e487b71000000000000000000000000000000000000000000000000000000005f52603260045260245ffd5b7f4e487b71000000000000000000000000000000000000000000000000000000005f52604160045260245ffd5b5f81905092915050565b50565b5f6108645f8361084c565b915061086f82610856565b5f82019050919050565b5f61088382610859565b9150819050919050565b7f43616c6c204661696c65642100000000000000000000000000000000000000005f82015250565b5f6108c1600c8361077a565b91506108cc8261088d565b602082019050919050565b5f6020820190508181035f8301526108ee816108b5565b9050919050565b7f6469646e27742073656e6420656e6f75676820455448000000000000000000005f82015250565b5f61092960168361077a565b9150610934826108f5565b602082019050919050565b5f6020820190508181035f8301526109568161091d565b9050919050565b7f4e487b71000000000000000000000000000000000000000000000000000000005f52601160045260245ffd5b5f610994826106cc565b915061099f836106cc565b92508282019050808211156109b7576109b661095d565b5b92915050565b5f6109c7826106cc565b91506109d2836106cc565b92508282026109e0816106cc565b915082820484148315176109f7576109f661095d565b5b5092915050565b7f4e487b71000000000000000000000000000000000000000000000000000000005f52601260045260245ffd5b5f610a35826106cc565b9150610a40836106cc565b925082610a5057610a4f6109fe565b5b828204905092915050565b5f69ffffffffffffffffffff82169050919050565b610a7981610a5b565b8114610a83575f80fd5b50565b5f81519050610a9481610a70565b92915050565b5f819050919050565b610aac81610a9a565b8114610ab6575f80fd5b50565b5f81519050610ac781610aa3565b92915050565b5f81519050610adb81610725565b92915050565b5f805f805f60a08688031215610afa57610af9610643565b5b5f610b0788828901610a86565b9550506020610b1888828901610ab9565b9450506040610b2988828901610acd565b9350506060610b3a88828901610acd565b9250506080610b4b88828901610a86565b915050929550929590935056fea2646970667358221220bbec5f6b6e56a77f54a291a260e9424a8ac188dc3d2ab19eda2fc0683415921f64736f6c634300081a0033",
					"opcodes": "PUSH1 0x80 PUSH1 0x40 MSTORE PUSH8 0x4563918244F40000 PUSH0 SSTORE CALLVALUE DUP1 ISZERO PUSH1 0x19 JUMPI PUSH0 DUP1 REVERT JUMPDEST POP CALLER PUSH1 0x3 PUSH0 PUSH2 0x100 EXP DUP2 SLOAD DUP2 PUSH20 0xFFFFFFFFFFFFFFFFFFFFFFFFFFFFFFFFFFFFFFFF MUL NOT AND SWAP1 DUP4 PUSH20 0xFFFFFFFFFFFFFFFFFFFFFFFFFFFFFFFFFFFFFFFF AND MUL OR SWAP1 SSTORE POP PUSH2 0xB8E DUP1 PUSH2 0x67 PUSH0 CODECOPY PUSH0 RETURN INVALID PUSH1 0x80 PUSH1 0x40 MSTORE PUSH1 0x4 CALLDATASIZE LT PUSH2 0x49 JUMPI PUSH0 CALLDATALOAD PUSH1 0xE0 SHR DUP1 PUSH4 0x3CCFD60B EQ PUSH2 0x4D JUMPI DUP1 PUSH4 0x3E47D6F3 EQ PUSH2 0x63 JUMPI DUP1 PUSH4 0x8DA5CB5B EQ PUSH2 0x9F JUMPI DUP1 PUSH4 0xB60D4288 EQ PUSH2 0xC9 JUMPI DUP1 PUSH4 0xDC0D3DFF EQ PUSH2 0xD3 JUMPI JUMPDEST PUSH0 DUP1 REVERT JUMPDEST CALLVALUE DUP1 ISZERO PUSH2 0x58 JUMPI PUSH0 DUP1 REVERT JUMPDEST POP PUSH2 0x61 PUSH2 0x10F JUMP JUMPDEST STOP JUMPDEST CALLVALUE DUP1 ISZERO PUSH2 0x6E JUMPI PUSH0 DUP1 REVERT JUMPDEST POP PUSH2 0x89 PUSH1 0x4 DUP1 CALLDATASIZE SUB DUP2 ADD SWAP1 PUSH2 0x84 SWAP2 SWAP1 PUSH2 0x6A1 JUMP JUMPDEST PUSH2 0x347 JUMP JUMPDEST PUSH1 0x40 MLOAD PUSH2 0x96 SWAP2 SWAP1 PUSH2 0x6E4 JUMP JUMPDEST PUSH1 0x40 MLOAD DUP1 SWAP2 SUB SWAP1 RETURN JUMPDEST CALLVALUE DUP1 ISZERO PUSH2 0xAA JUMPI PUSH0 DUP1 REVERT JUMPDEST POP PUSH2 0xB3 PUSH2 0x35C JUMP JUMPDEST PUSH1 0x40 MLOAD PUSH2 0xC0 SWAP2 SWAP1 PUSH2 0x70C JUMP JUMPDEST PUSH1 0x40 MLOAD DUP1 SWAP2 SUB SWAP1 RETURN JUMPDEST PUSH2 0xD1 PUSH2 0x381 JUMP JUMPDEST STOP JUMPDEST CALLVALUE DUP1 ISZERO PUSH2 0xDE JUMPI PUSH0 DUP1 REVERT JUMPDEST POP PUSH2 0xF9 PUSH1 0x4 DUP1 CALLDATASIZE SUB DUP2 ADD SWAP1 PUSH2 0xF4 SWAP2 SWAP1 PUSH2 0x74F JUMP JUMPDEST PUSH2 0x489 JUMP JUMPDEST PUSH1 0x40 MLOAD PUSH2 0x106 SWAP2 SWAP1 PUSH2 0x70C JUMP JUMPDEST PUSH1 0x40 MLOAD DUP1 SWAP2 SUB SWAP1 RETURN JUMPDEST PUSH1 0x3 PUSH0 SWAP1 SLOAD SWAP1 PUSH2 0x100 EXP SWAP1 DIV PUSH20 0xFFFFFFFFFFFFFFFFFFFFFFFFFFFFFFFFFFFFFFFF AND PUSH20 0xFFFFFFFFFFFFFFFFFFFFFFFFFFFFFFFFFFFFFFFF AND CALLER PUSH20 0xFFFFFFFFFFFFFFFFFFFFFFFFFFFFFFFFFFFFFFFF AND EQ PUSH2 0x19E JUMPI PUSH1 0x40 MLOAD PUSH32 0x8C379A000000000000000000000000000000000000000000000000000000000 DUP2 MSTORE PUSH1 0x4 ADD PUSH2 0x195 SWAP1 PUSH2 0x7D4 JUMP JUMPDEST PUSH1 0x40 MLOAD DUP1 SWAP2 SUB SWAP1 REVERT JUMPDEST PUSH0 JUMPDEST PUSH1 0x1 DUP1 SLOAD SWAP1 POP DUP2 LT ISZERO PUSH2 0x23C JUMPI PUSH0 PUSH1 0x1 DUP3 DUP2 SLOAD DUP2 LT PUSH2 0x1C2 JUMPI PUSH2 0x1C1 PUSH2 0x7F2 JUMP JUMPDEST JUMPDEST SWAP1 PUSH0 MSTORE PUSH1 0x20 PUSH0 KECCAK256 ADD PUSH0 SWAP1 SLOAD SWAP1 PUSH2 0x100 EXP SWAP1 DIV PUSH20 0xFFFFFFFFFFFFFFFFFFFFFFFFFFFFFFFFFFFFFFFF AND SWAP1 POP PUSH0 PUSH1 0x2 PUSH0 DUP4 PUSH20 0xFFFFFFFFFFFFFFFFFFFFFFFFFFFFFFFFFFFFFFFF AND PUSH20 0xFFFFFFFFFFFFFFFFFFFFFFFFFFFFFFFFFFFFFFFF AND DUP2 MSTORE PUSH1 0x20 ADD SWAP1 DUP2 MSTORE PUSH1 0x20 ADD PUSH0 KECCAK256 DUP2 SWAP1 SSTORE POP POP DUP1 DUP1 PUSH1 0x1 ADD SWAP2 POP POP PUSH2 0x1A0 JUMP JUMPDEST POP PUSH0 PUSH8 0xFFFFFFFFFFFFFFFF DUP2 GT ISZERO PUSH2 0x257 JUMPI PUSH2 0x256 PUSH2 0x81F JUMP JUMPDEST JUMPDEST PUSH1 0x40 MLOAD SWAP1 DUP1 DUP3 MSTORE DUP1 PUSH1 0x20 MUL PUSH1 0x20 ADD DUP3 ADD PUSH1 0x40 MSTORE DUP1 ISZERO PUSH2 0x285 JUMPI DUP2 PUSH1 0x20 ADD PUSH1 0x20 DUP3 MUL DUP1 CALLDATASIZE DUP4 CALLDATACOPY DUP1 DUP3 ADD SWAP2 POP POP SWAP1 POP JUMPDEST POP PUSH1 0x1 SWAP1 DUP1 MLOAD SWAP1 PUSH1 0x20 ADD SWAP1 PUSH2 0x29B SWAP3 SWAP2 SWAP1 PUSH2 0x5A1 JUMP JUMPDEST POP PUSH0 CALLER PUSH20 0xFFFFFFFFFFFFFFFFFFFFFFFFFFFFFFFFFFFFFFFF AND SELFBALANCE PUSH1 0x40 MLOAD PUSH2 0x2C1 SWAP1 PUSH2 0x879 JUMP JUMPDEST PUSH0 PUSH1 0x40 MLOAD DUP1 DUP4 SUB DUP2 DUP6 DUP8 GAS CALL SWAP3 POP POP POP RETURNDATASIZE DUP1 PUSH0 DUP2 EQ PUSH2 0x2FB JUMPI PUSH1 0x40 MLOAD SWAP2 POP PUSH1 0x1F NOT PUSH1 0x3F RETURNDATASIZE ADD AND DUP3 ADD PUSH1 0x40 MSTORE RETURNDATASIZE DUP3 MSTORE RETURNDATASIZE PUSH0 PUSH1 0x20 DUP5 ADD RETURNDATACOPY PUSH2 0x300 JUMP JUMPDEST PUSH1 0x60 SWAP2 POP JUMPDEST POP POP SWAP1 POP DUP1 PUSH2 0x344 JUMPI PUSH1 0x40 MLOAD PUSH32 0x8C379A000000000000000000000000000000000000000000000000000000000 DUP2 MSTORE PUSH1 0x4 ADD PUSH2 0x33B SWAP1 PUSH2 0x8D7 JUMP JUMPDEST PUSH1 0x40 MLOAD DUP1 SWAP2 SUB SWAP1 REVERT JUMPDEST POP JUMP JUMPDEST PUSH1 0x2 PUSH1 0x20 MSTORE DUP1 PUSH0 MSTORE PUSH1 0x40 PUSH0 KECCAK256 PUSH0 SWAP2 POP SWAP1 POP SLOAD DUP2 JUMP JUMPDEST PUSH1 0x3 PUSH0 SWAP1 SLOAD SWAP1 PUSH2 0x100 EXP SWAP1 DIV PUSH20 0xFFFFFFFFFFFFFFFFFFFFFFFFFFFFFFFFFFFFFFFF AND DUP2 JUMP JUMPDEST PUSH8 0xDE0B6B3A7640000 PUSH2 0x393 CALLVALUE PUSH2 0x4C4 JUMP JUMPDEST LT ISZERO PUSH2 0x3D4 JUMPI PUSH1 0x40 MLOAD PUSH32 0x8C379A000000000000000000000000000000000000000000000000000000000 DUP2 MSTORE PUSH1 0x4 ADD PUSH2 0x3CB SWAP1 PUSH2 0x93F JUMP JUMPDEST PUSH1 0x40 MLOAD DUP1 SWAP2 SUB SWAP1 REVERT JUMPDEST PUSH1 0x1 CALLER SWAP1 DUP1 PUSH1 0x1 DUP2 SLOAD ADD DUP1 DUP3 SSTORE DUP1 SWAP2 POP POP PUSH1 0x1 SWAP1 SUB SWAP1 PUSH0 MSTORE PUSH1 0x20 PUSH0 KECCAK256 ADD PUSH0 SWAP1 SWAP2 SWAP1 SWAP2 SWAP1 SWAP2 PUSH2 0x100 EXP DUP2 SLOAD DUP2 PUSH20 0xFFFFFFFFFFFFFFFFFFFFFFFFFFFFFFFFFFFFFFFF MUL NOT AND SWAP1 DUP4 PUSH20 0xFFFFFFFFFFFFFFFFFFFFFFFFFFFFFFFFFFFFFFFF AND MUL OR SWAP1 SSTORE POP CALLVALUE PUSH1 0x2 PUSH0 CALLER PUSH20 0xFFFFFFFFFFFFFFFFFFFFFFFFFFFFFFFFFFFFFFFF AND PUSH20 0xFFFFFFFFFFFFFFFFFFFFFFFFFFFFFFFFFFFFFFFF AND DUP2 MSTORE PUSH1 0x20 ADD SWAP1 DUP2 MSTORE PUSH1 0x20 ADD PUSH0 KECCAK256 PUSH0 DUP3 DUP3 SLOAD PUSH2 0x480 SWAP2 SWAP1 PUSH2 0x98A JUMP JUMPDEST SWAP3 POP POP DUP2 SWAP1 SSTORE POP JUMP JUMPDEST PUSH1 0x1 DUP2 DUP2 SLOAD DUP2 LT PUSH2 0x498 JUMPI PUSH0 DUP1 REVERT JUMPDEST SWAP1 PUSH0 MSTORE PUSH1 0x20 PUSH0 KECCAK256 ADD PUSH0 SWAP2 POP SLOAD SWAP1 PUSH2 0x100 EXP SWAP1 DIV PUSH20 0xFFFFFFFFFFFFFFFFFFFFFFFFFFFFFFFFFFFFFFFF AND DUP2 JUMP JUMPDEST PUSH0 DUP1 PUSH2 0x4CE PUSH2 0x4FC JUMP JUMPDEST SWAP1 POP PUSH0 PUSH8 0xDE0B6B3A7640000 DUP5 DUP4 PUSH2 0x4E6 SWAP2 SWAP1 PUSH2 0x9BD JUMP JUMPDEST PUSH2 0x4F0 SWAP2 SWAP1 PUSH2 0xA2B JUMP JUMPDEST SWAP1 POP DUP1 SWAP3 POP POP POP SWAP2 SWAP1 POP JUMP JUMPDEST PUSH0 DUP1 PUSH20 0x694AA1769357215DE4FAC081BF1F309ADC325306 SWAP1 POP PUSH0 DUP2 PUSH20 0xFFFFFFFFFFFFFFFFFFFFFFFFFFFFFFFFFFFFFFFF AND PUSH4 0xFEAF968C PUSH1 0x40 MLOAD DUP2 PUSH4 0xFFFFFFFF AND PUSH1 0xE0 SHL DUP2 MSTORE PUSH1 0x4 ADD PUSH1 0xA0 PUSH1 0x40 MLOAD DUP1 DUP4 SUB DUP2 DUP7 GAS STATICCALL ISZERO DUP1 ISZERO PUSH2 0x55F JUMPI RETURNDATASIZE PUSH0 DUP1 RETURNDATACOPY RETURNDATASIZE PUSH0 REVERT JUMPDEST POP POP POP POP PUSH1 0x40 MLOAD RETURNDATASIZE PUSH1 0x1F NOT PUSH1 0x1F DUP3 ADD AND DUP3 ADD DUP1 PUSH1 0x40 MSTORE POP DUP2 ADD SWAP1 PUSH2 0x583 SWAP2 SWAP1 PUSH2 0xAE1 JUMP JUMPDEST POP POP POP SWAP2 POP POP PUSH5 0x2540BE400 DUP2 PUSH2 0x59A SWAP2 SWAP1 PUSH2 0x9BD JUMP JUMPDEST SWAP3 POP POP POP SWAP1 JUMP JUMPDEST DUP3 DUP1 SLOAD DUP3 DUP3 SSTORE SWAP1 PUSH0 MSTORE PUSH1 0x20 PUSH0 KECCAK256 SWAP1 DUP2 ADD SWAP3 DUP3 ISZERO PUSH2 0x617 JUMPI SWAP2 PUSH1 0x20 MUL DUP3 ADD JUMPDEST DUP3 DUP2 GT ISZERO PUSH2 0x616 JUMPI DUP3 MLOAD DUP3 PUSH0 PUSH2 0x100 EXP DUP2 SLOAD DUP2 PUSH20 0xFFFFFFFFFFFFFFFFFFFFFFFFFFFFFFFFFFFFFFFF MUL NOT AND SWAP1 DUP4 PUSH20 0xFFFFFFFFFFFFFFFFFFFFFFFFFFFFFFFFFFFFFFFF AND MUL OR SWAP1 SSTORE POP SWAP2 PUSH1 0x20 ADD SWAP2 SWAP1 PUSH1 0x1 ADD SWAP1 PUSH2 0x5BF JUMP JUMPDEST JUMPDEST POP SWAP1 POP PUSH2 0x624 SWAP2 SWAP1 PUSH2 0x628 JUMP JUMPDEST POP SWAP1 JUMP JUMPDEST JUMPDEST DUP1 DUP3 GT ISZERO PUSH2 0x63F JUMPI PUSH0 DUP2 PUSH0 SWAP1 SSTORE POP PUSH1 0x1 ADD PUSH2 0x629 JUMP JUMPDEST POP SWAP1 JUMP JUMPDEST PUSH0 DUP1 REVERT JUMPDEST PUSH0 PUSH20 0xFFFFFFFFFFFFFFFFFFFFFFFFFFFFFFFFFFFFFFFF DUP3 AND SWAP1 POP SWAP2 SWAP1 POP JUMP JUMPDEST PUSH0 PUSH2 0x670 DUP3 PUSH2 0x647 JUMP JUMPDEST SWAP1 POP SWAP2 SWAP1 POP JUMP JUMPDEST PUSH2 0x680 DUP2 PUSH2 0x666 JUMP JUMPDEST DUP2 EQ PUSH2 0x68A JUMPI PUSH0 DUP1 REVERT JUMPDEST POP JUMP JUMPDEST PUSH0 DUP2 CALLDATALOAD SWAP1 POP PUSH2 0x69B DUP2 PUSH2 0x677 JUMP JUMPDEST SWAP3 SWAP2 POP POP JUMP JUMPDEST PUSH0 PUSH1 0x20 DUP3 DUP5 SUB SLT ISZERO PUSH2 0x6B6 JUMPI PUSH2 0x6B5 PUSH2 0x643 JUMP JUMPDEST JUMPDEST PUSH0 PUSH2 0x6C3 DUP5 DUP3 DUP6 ADD PUSH2 0x68D JUMP JUMPDEST SWAP2 POP POP SWAP3 SWAP2 POP POP JUMP JUMPDEST PUSH0 DUP2 SWAP1 POP SWAP2 SWAP1 POP JUMP JUMPDEST PUSH2 0x6DE DUP2 PUSH2 0x6CC JUMP JUMPDEST DUP3 MSTORE POP POP JUMP JUMPDEST PUSH0 PUSH1 0x20 DUP3 ADD SWAP1 POP PUSH2 0x6F7 PUSH0 DUP4 ADD DUP5 PUSH2 0x6D5 JUMP JUMPDEST SWAP3 SWAP2 POP POP JUMP JUMPDEST PUSH2 0x706 DUP2 PUSH2 0x666 JUMP JUMPDEST DUP3 MSTORE POP POP JUMP JUMPDEST PUSH0 PUSH1 0x20 DUP3 ADD SWAP1 POP PUSH2 0x71F PUSH0 DUP4 ADD DUP5 PUSH2 0x6FD JUMP JUMPDEST SWAP3 SWAP2 POP POP JUMP JUMPDEST PUSH2 0x72E DUP2 PUSH2 0x6CC JUMP JUMPDEST DUP2 EQ PUSH2 0x738 JUMPI PUSH0 DUP1 REVERT JUMPDEST POP JUMP JUMPDEST PUSH0 DUP2 CALLDATALOAD SWAP1 POP PUSH2 0x749 DUP2 PUSH2 0x725 JUMP JUMPDEST SWAP3 SWAP2 POP POP JUMP JUMPDEST PUSH0 PUSH1 0x20 DUP3 DUP5 SUB SLT ISZERO PUSH2 0x764 JUMPI PUSH2 0x763 PUSH2 0x643 JUMP JUMPDEST JUMPDEST PUSH0 PUSH2 0x771 DUP5 DUP3 DUP6 ADD PUSH2 0x73B JUMP JUMPDEST SWAP2 POP POP SWAP3 SWAP2 POP POP JUMP JUMPDEST PUSH0 DUP3 DUP3 MSTORE PUSH1 0x20 DUP3 ADD SWAP1 POP SWAP3 SWAP2 POP POP JUMP JUMPDEST PUSH32 0x53656E646572206973206E6F7420746865206F776E6572210000000000000000 PUSH0 DUP3 ADD MSTORE POP JUMP JUMPDEST PUSH0 PUSH2 0x7BE PUSH1 0x18 DUP4 PUSH2 0x77A JUMP JUMPDEST SWAP2 POP PUSH2 0x7C9 DUP3 PUSH2 0x78A JUMP JUMPDEST PUSH1 0x20 DUP3 ADD SWAP1 POP SWAP2 SWAP1 POP JUMP JUMPDEST PUSH0 PUSH1 0x20 DUP3 ADD SWAP1 POP DUP2 DUP2 SUB PUSH0 DUP4 ADD MSTORE PUSH2 0x7EB DUP2 PUSH2 0x7B2 JUMP JUMPDEST SWAP1 POP SWAP2 SWAP1 POP JUMP JUMPDEST PUSH32 0x4E487B7100000000000000000000000000000000000000000000000000000000 PUSH0 MSTORE PUSH1 0x32 PUSH1 0x4 MSTORE PUSH1 0x24 PUSH0 REVERT JUMPDEST PUSH32 0x4E487B7100000000000000000000000000000000000000000000000000000000 PUSH0 MSTORE PUSH1 0x41 PUSH1 0x4 MSTORE PUSH1 0x24 PUSH0 REVERT JUMPDEST PUSH0 DUP2 SWAP1 POP SWAP3 SWAP2 POP POP JUMP JUMPDEST POP JUMP JUMPDEST PUSH0 PUSH2 0x864 PUSH0 DUP4 PUSH2 0x84C JUMP JUMPDEST SWAP2 POP PUSH2 0x86F DUP3 PUSH2 0x856 JUMP JUMPDEST PUSH0 DUP3 ADD SWAP1 POP SWAP2 SWAP1 POP JUMP JUMPDEST PUSH0 PUSH2 0x883 DUP3 PUSH2 0x859 JUMP JUMPDEST SWAP2 POP DUP2 SWAP1 POP SWAP2 SWAP1 POP JUMP JUMPDEST PUSH32 0x43616C6C204661696C6564210000000000000000000000000000000000000000 PUSH0 DUP3 ADD MSTORE POP JUMP JUMPDEST PUSH0 PUSH2 0x8C1 PUSH1 0xC DUP4 PUSH2 0x77A JUMP JUMPDEST SWAP2 POP PUSH2 0x8CC DUP3 PUSH2 0x88D JUMP JUMPDEST PUSH1 0x20 DUP3 ADD SWAP1 POP SWAP2 SWAP1 POP JUMP JUMPDEST PUSH0 PUSH1 0x20 DUP3 ADD SWAP1 POP DUP2 DUP2 SUB PUSH0 DUP4 ADD MSTORE PUSH2 0x8EE DUP2 PUSH2 0x8B5 JUMP JUMPDEST SWAP1 POP SWAP2 SWAP1 POP JUMP JUMPDEST PUSH32 0x6469646E27742073656E6420656E6F7567682045544800000000000000000000 PUSH0 DUP3 ADD MSTORE POP JUMP JUMPDEST PUSH0 PUSH2 0x929 PUSH1 0x16 DUP4 PUSH2 0x77A JUMP JUMPDEST SWAP2 POP PUSH2 0x934 DUP3 PUSH2 0x8F5 JUMP JUMPDEST PUSH1 0x20 DUP3 ADD SWAP1 POP SWAP2 SWAP1 POP JUMP JUMPDEST PUSH0 PUSH1 0x20 DUP3 ADD SWAP1 POP DUP2 DUP2 SUB PUSH0 DUP4 ADD MSTORE PUSH2 0x956 DUP2 PUSH2 0x91D JUMP JUMPDEST SWAP1 POP SWAP2 SWAP1 POP JUMP JUMPDEST PUSH32 0x4E487B7100000000000000000000000000000000000000000000000000000000 PUSH0 MSTORE PUSH1 0x11 PUSH1 0x4 MSTORE PUSH1 0x24 PUSH0 REVERT JUMPDEST PUSH0 PUSH2 0x994 DUP3 PUSH2 0x6CC JUMP JUMPDEST SWAP2 POP PUSH2 0x99F DUP4 PUSH2 0x6CC JUMP JUMPDEST SWAP3 POP DUP3 DUP3 ADD SWAP1 POP DUP1 DUP3 GT ISZERO PUSH2 0x9B7 JUMPI PUSH2 0x9B6 PUSH2 0x95D JUMP JUMPDEST JUMPDEST SWAP3 SWAP2 POP POP JUMP JUMPDEST PUSH0 PUSH2 0x9C7 DUP3 PUSH2 0x6CC JUMP JUMPDEST SWAP2 POP PUSH2 0x9D2 DUP4 PUSH2 0x6CC JUMP JUMPDEST SWAP3 POP DUP3 DUP3 MUL PUSH2 0x9E0 DUP2 PUSH2 0x6CC JUMP JUMPDEST SWAP2 POP DUP3 DUP3 DIV DUP5 EQ DUP4 ISZERO OR PUSH2 0x9F7 JUMPI PUSH2 0x9F6 PUSH2 0x95D JUMP JUMPDEST JUMPDEST POP SWAP3 SWAP2 POP POP JUMP JUMPDEST PUSH32 0x4E487B7100000000000000000000000000000000000000000000000000000000 PUSH0 MSTORE PUSH1 0x12 PUSH1 0x4 MSTORE PUSH1 0x24 PUSH0 REVERT JUMPDEST PUSH0 PUSH2 0xA35 DUP3 PUSH2 0x6CC JUMP JUMPDEST SWAP2 POP PUSH2 0xA40 DUP4 PUSH2 0x6CC JUMP JUMPDEST SWAP3 POP DUP3 PUSH2 0xA50 JUMPI PUSH2 0xA4F PUSH2 0x9FE JUMP JUMPDEST JUMPDEST DUP3 DUP3 DIV SWAP1 POP SWAP3 SWAP2 POP POP JUMP JUMPDEST PUSH0 PUSH10 0xFFFFFFFFFFFFFFFFFFFF DUP3 AND SWAP1 POP SWAP2 SWAP1 POP JUMP JUMPDEST PUSH2 0xA79 DUP2 PUSH2 0xA5B JUMP JUMPDEST DUP2 EQ PUSH2 0xA83 JUMPI PUSH0 DUP1 REVERT JUMPDEST POP JUMP JUMPDEST PUSH0 DUP2 MLOAD SWAP1 POP PUSH2 0xA94 DUP2 PUSH2 0xA70 JUMP JUMPDEST SWAP3 SWAP2 POP POP JUMP JUMPDEST PUSH0 DUP2 SWAP1 POP SWAP2 SWAP1 POP JUMP JUMPDEST PUSH2 0xAAC DUP2 PUSH2 0xA9A JUMP JUMPDEST DUP2 EQ PUSH2 0xAB6 JUMPI PUSH0 DUP1 REVERT JUMPDEST POP JUMP JUMPDEST PUSH0 DUP2 MLOAD SWAP1 POP PUSH2 0xAC7 DUP2 PUSH2 0xAA3 JUMP JUMPDEST SWAP3 SWAP2 POP POP JUMP JUMPDEST PUSH0 DUP2 MLOAD SWAP1 POP PUSH2 0xADB DUP2 PUSH2 0x725 JUMP JUMPDEST SWAP3 SWAP2 POP POP JUMP JUMPDEST PUSH0 DUP1 PUSH0 DUP1 PUSH0 PUSH1 0xA0 DUP7 DUP9 SUB SLT ISZERO PUSH2 0xAFA JUMPI PUSH2 0xAF9 PUSH2 0x643 JUMP JUMPDEST JUMPDEST PUSH0 PUSH2 0xB07 DUP9 DUP3 DUP10 ADD PUSH2 0xA86 JUMP JUMPDEST SWAP6 POP POP PUSH1 0x20 PUSH2 0xB18 DUP9 DUP3 DUP10 ADD PUSH2 0xAB9 JUMP JUMPDEST SWAP5 POP POP PUSH1 0x40 PUSH2 0xB29 DUP9 DUP3 DUP10 ADD PUSH2 0xACD JUMP JUMPDEST SWAP4 POP POP PUSH1 0x60 PUSH2 0xB3A DUP9 DUP3 DUP10 ADD PUSH2 0xACD JUMP JUMPDEST SWAP3 POP POP PUSH1 0x80 PUSH2 0xB4B DUP9 DUP3 DUP10 ADD PUSH2 0xA86 JUMP JUMPDEST SWAP2 POP POP SWAP3 SWAP6 POP SWAP3 SWAP6 SWAP1 SWAP4 POP JUMP INVALID LOG2 PUSH5 0x6970667358 0x22 SLT KECCAK256 0xBB 0xEC PUSH0 PUSH12 0x6E56A77F54A291A260E9424A DUP11 0xC1 DUP9 0xDC RETURNDATASIZE 0x2A 0xB1 SWAP15 0xDA 0x2F 0xC0 PUSH9 0x3415921F64736F6C63 NUMBER STOP ADDMOD BYTE STOP CALLER "
				},
				"gasEstimates": {
					"creation": {
						"codeDepositCost": "591600",
						"executionCost": "46993",
						"totalCost": "638593"
					},
					"external": {
						"addressToAmountFunded(address)": "2802",
						"fund()": "infinite",
						"funders(uint256)": "5010",
						"owner()": "2530",
						"withdraw()": "infinite"
					}
				},
				"methodIdentifiers": {
					"addressToAmountFunded(address)": "3e47d6f3",
					"fund()": "b60d4288",
					"funders(uint256)": "dc0d3dff",
					"owner()": "8da5cb5b",
					"withdraw()": "3ccfd60b"
				}
			},
			"storageLayout": {
				"storage": [
					{
						"astId": 57,
						"contract": "Contracts/GoFundMe/FundMe.sol:FundMe",
						"label": "minimumUsd",
						"offset": 0,
						"slot": "0",
						"type": "t_uint256"
					},
					{
						"astId": 60,
						"contract": "Contracts/GoFundMe/FundMe.sol:FundMe",
						"label": "funders",
						"offset": 0,
						"slot": "1",
						"type": "t_array(t_address)dyn_storage"
					},
					{
						"astId": 64,
						"contract": "Contracts/GoFundMe/FundMe.sol:FundMe",
						"label": "addressToAmountFunded",
						"offset": 0,
						"slot": "2",
						"type": "t_mapping(t_address,t_uint256)"
					},
					{
						"astId": 66,
						"contract": "Contracts/GoFundMe/FundMe.sol:FundMe",
						"label": "owner",
						"offset": 0,
						"slot": "3",
						"type": "t_address"
					}
				],
				"types": {
					"t_address": {
						"encoding": "inplace",
						"label": "address",
						"numberOfBytes": "20"
					},
					"t_array(t_address)dyn_storage": {
						"base": "t_address",
						"encoding": "dynamic_array",
						"label": "address[]",
						"numberOfBytes": "32"
					},
					"t_mapping(t_address,t_uint256)": {
						"encoding": "mapping",
						"key": "t_address",
						"label": "mapping(address => uint256)",
						"numberOfBytes": "32",
						"value": "t_uint256"
					},
					"t_uint256": {
						"encoding": "inplace",
						"label": "uint256",
						"numberOfBytes": "32"
					}
				}
			},
			"userdoc": {
				"kind": "user",
				"methods": {},
				"version": 1
			}
		}
	}
}